:100000000C9498040C940A050C940A050C940A05A7
:100010000C940A050C94E5310C940A050C94A13259
:100020000C940A050C940A050C940A050C940A0514
:100030000C940A050C948D330C940A050C940A0553
:100040000C940A050C940A050C940A050C940A05F4
:100050000C940A050C940A050C940A050C941733A9
:100060000C940A050C94053F0C940A050C94803FEF
:100070000C940A050C940A050C940A050C940A05C4
:100080000C940A050C940A050C940A050C940A05B4
:100090000C94FA3F0C940A050C9475400C948B3E1A
:1000A0000C940A050C940A050C940A050C940A0594
:1000B0000C940A050C940A050C940A050C940A0584
:1000C0000C940A050C940A050C940A050835513560
:1000D0009835BE35D235FA350236273605354936DC
:1000E000903696369C36A236BF36A836BF36F536E1
:1000F000CA36DF364E4F20627574746F6E20707290
:10010000657373656421205475726E696E67206F24
:10011000666620746865206C696768742E2E2E00F0
:100120004C6F6F706C6F6769630052544320746941
:100130006D65205B253032643A253032643A2530D3
:1001400032645D0048656C6C6F20576F726C6400A0
:100150004C414D504A4520554954004C414D504A60
:10016000452041414E0077007561727430000A00ED
:100170000A23446562756720000A23496E666F2072
:1001800020000A234E6F74696320000A23576172AE
:100190006E2020000A23457272202020000A23438B
:1001A0007269742020000A23416C65727420000A71
:1001B00023456D65726720003F3F203C444D4B3E18
:1001C000200057443A200056533A200056453A2022
:1001D0000055543A200055443A200055413A200039
:1001E00053523A200053503A200053473A200053CC
:1001F000453A200053543A200052543A20005243CA
:100200003A2000504C3A200050413A20004D443AE8
:1002100020004D4D3A20004D453A200053593A20D8
:10022000004C473A20004C453A20004B423A20000F
:10023000494E3A200048543A2000464C3A200046A5
:10024000413A200044503A2000434D3A20004348B0
:100250003A200041553A200030803000170780B026
:10026000173C06001750003F24000600162012001D
:100270008F570000CE101229009900004D008040D9
:100280004C180600D7960028550D0000480D0600B2
:10029000505B0930420080B00180144240BC1828F5
:1002A00040C71336423C003E03B81400031B150040
:1002B000C259D66F2400003603981228D557000083
:1002C0004D000028402BF33624004C80103E14389B
:1002D000103E0A78133E0DB8033E05F8060095550A
:1002E000093015141B00D4FF0300CEFF01000A00E3
:1002F0000024CE168AB5240092F2009452612400A4
:1003000002FE2400B24824004A4501B6F33605D85F
:10031000F3360D98F0360A5800200000F036141815
:10032000618013362400123E17B8123E1538053E80
:1003300014B82536240000000A80103E03B894410A
:1003400005B8113E2400113E07B8143E1278143E41
:100350000DF8033E0EF8060051000028D5240000D9
:10036000240088B81200046405040000240000285A
:1003700058219440240000240221000024009864A5
:10038000030856FE2400B6482400D64D2400103A37
:1003900024C0F03224C056FE2400B6482400D64DB6
:1003A00024008443834496638C8800F4D540003D48
:1003B0002480060091003F00C3FE06005300013177
:1003C000248060FE2400BE48240034A6030C24438D
:1003D00024008442022C060011000028D824003199
:1003E00024800600115000392480060011000031DD
:1003F0004C9884424C9000F4884000284528000026
:100400002400F03C403809304138093010380020D1
:100410000000000088270930D01B00288028093000
:10042000811BF334CC1BF3360ED8F4360DD8F436DA
:100430001258F1360798F1360518F036039805344E
:100440001490F3362400F236151800200000F2361E
:100450001798AD80123E17B8123E1538053E14B8F5
:100460001536240000000A80103E0278103E04F881
:10047000113E1078143E1278132980C9143E24C00E
:10048000132980C988404C1800F405400000C018AA
:10049000006424000000C01B0028953030001003C9
:1004A0000028803F01382440006424000000401AE6
:1004B000002855370600D0550000037D84B84C183D
:1004C00009300538093000008AFF24001D29007B0F
:1004D000B248240000004118060010508A4044B879
:1004E00000290013884024000030CC1B1460240035
:1004F000300051030028D53600002400060011000A
:100500000031240030005103003824000028803FCF
:1005100001392440006424003000D0030028553FF6
:100520000000037D0600D05584B84C18093005380A
:10053000093000008AFF24001D29007BB2482400F6
:100540008A40CC9B000041180028553B0600105003
:100550009A682400003024001460240030009203C4
:100560000028853E06009100060011000000521888
:100570000600530080B8002406009100043824804F
:1005800030009203003B2400013924400028803FC2
:10059000013A24400138244080B8D31BF436125865
:1005A000F1361058F03604D8F0360258053414905D
:1005B000F3362400F236151800200000F2361798A2
:1005C000300000000000457869740000000053EF1F
:1005D0006E000000004578697453EF6E4DEA6D546B
:1005E00000000000070606060606060606060606C2
:1005F000060606060606060606060606060606069B
:10060000060606060606060606060606060606068A
:100610000606060606060606060606060607060679
:10062000060606060606060606060606060606066A
:10063000060606060606060606060606060606065A
:100640000606060606060606070606060606060649
:10065000060606060606060606060606060606063A
:10066000060606060606060606060606060606062A
:10067000060606060606060606060606060606061A
:10068000060606060606060606060606060606060A
:1006900006060606060606060606060606060606FA
:1006A00006060606060606060606060606060606EA
:1006B00006060606060606060606060606060606DA
:1006C00006060606060606060606060606060606CA
:1006D00006060606060606060606060606060606BA
:1006E00006070606060606060606060606060606A9
:1006F000060606060606060606060606060606069A
:100700000606060606060606060606060606060689
:100710000606060606060606060606060606060679
:100720000606060606060606060606060606060669
:100730000606060606060606060606060606060659
:100740000606060606060606060606060606060649
:100750000606060606060606060606060606060639
:100760000606060606060606060606060606060629
:100770000606060606060606060606060606060619
:100780000606060606060606060606060606060609
:1007900006060606060606060654687265616420AB
:1007A0006661696C656400436172645072657300D0
:1007B000436172642072656D6F7665640043617297
:1007C0006420696E736572746564004572726F723D
:1007D00020696E697469616C6973696E6720466926
:1007E0006C652073797374656D20616E642043615C
:1007F00072642D6472697665720043617264206D63
:100800006F756E74656400696E76616C69642053FF
:1008100070656564006572726F7220647572696ECE
:1008200067204353442072656164000000000000AB
:1008300000000000000000000000000000000000B8
:1008400000000000000000000000000000000000A8
:100850000000000000000000000000000000000098
:100860000000000000000000000000000000000088
:100870000000000000000000000000000000000078
:100880000000000000000000000000000000000068
:100890000000000000000000000000000000000058
:1008A0000000000000000000000000000000000048
:1008B0000000000000000000000000000000000038
:1008C0000000000000000000000000000000000028
:1008D0000000000000000000000000000000000018
:1008E0000000000000000000000000000000000008
:1008F00000000000000000000000000000000000F8
:1009000000000000000000000000000000000000E7
:1009100000000000000000000000000000000000D7
:1009200000000000000000000000000000000000C7
:1009300084E880937400479A3F9A469A3E9A81EEE3
:10094000809300C380E4809301C385B78F7785BF10
:1009500080E090E0359B05C0019641F0359BF8CFD3
:10096000FBCF019619F03599F3CFFBCF85B780689F
:1009700085BF47983F9846983E9887E08093C4008B
:100980008093CC0011241FBECFEFD1E2DEBFCDBFDC
:1009900013E0A0E0B2E0EAEFFFE800E00BBF02C026
:1009A00007900D92AE39B107D9F717E0AEE9B3E081
:1009B00001C01D92A832B107E1F78FEF9FE79EBFFC
:1009C0008DBF8FEF9FE7885297408158914040F04C
:1009D0006FEF7EE76852774088E297E00E947326C7
:1009E0000E94362F892B41F067ED72E08EE097E090
:1009F0000E945A470E941D2F20E831E040E050E05D
:100A00006AE675E280EE92E00E9465300E94000086
:100A10000C94FC470C94000087EF84B98CE08AB9F1
:100A20008BB18C70836F8BB98EE88DB98EB18E7857
:100A300081608EB985B7806885BF85B7806885BFBE
:100A40008EE080BB81B38E70816F81BB88E183BBF8
:100A50000895CF92DF92EF92FF920F931F93CF935F
:100A6000DF93CDB7DEB762970FB6F894DEBF0FBE47
:100A7000CDBF0E94010E84E60E94612A0E940C05EF
:100A80000E94A30F0E9405090E94F2090E94B40669
:100A90000E9468060E94DF0884E491E09F938F9390
:100AA00016EC1F930E949F070E94870E0E942B2125
:100AB000CE0101960E9447210F900F900F90892B35
:100AC000D9F489819A819F938F938B819C819F9385
:100AD0008F938D819E819F938F938AE291E09F9364
:100AE0008F931F930E949F078DB79EB709960FB6ED
:100AF000F8949EBF0FBE8DBF0E94FF1E81E00E9432
:100B0000972920E032E040E050E065E176E080E0C7
:100B100092E00E94653020E032E040E050E060E08A
:100B200076E089E092E00E9465300E94930D0E9479
:100B3000650940E050E06BEF75E087EF92E00E94BE
:100B4000602F892B49F485B5846085BDA89A809172
:100B50006E00816080936E00789464E670E080E0BF
:100B600090E00E94732BFF24CC24DD2401E010E0F0
:100B70001F930F9380E291E09F938F9396ECE92E61
:100B8000EF920E949F070E949A090F900F900F907A
:100B90000F900F908F5F9F4F39F081E00E94AE0958
:100BA000680181E0F82E15C0FF2099F0C8018C196A
:100BB0009D09459774F084EF90E09F938F93EF9297
:100BC0000E949F0780E00E94AE09FF240F900F90C3
:100BD0000F900E94FF0D64E670E080E090E00E94BC
:100BE000732BC8016FE070E00E94A0470F5F1F4F9A
:100BF000892B79F7BDCF0E940D090E942E0E089512
:100C000080E00E94E50880E591E09F938F9386EC59
:100C10008F930E949F0764E670E080E090E00E945E
:100C2000732B0F900F900F90EBCF80E092E09F938B
:100C30008F930E9470420F900F9081E00E94E50810
:100C40008BE591E09F938F9386EC8F930E949F0793
:100C500064E670E080E090E00E94732B0F900F90AC
:100C60000F90EBCF80919E0390919F030895809108
:100C70009E0390919F03009731F00E941B411092B8
:100C80009F0310929E030895CF93DF93CDB7DEB7F5
:100C900024970FB6F894DEBF0FBECDBF69837A8369
:100CA0008B839C8380919E0390919F030E946C4153
:100CB000AE014F5F5F4F63E171E00E94B140249647
:100CC0000FB6F894DEBF0FBECDBFDF91CF91089570
:100CD000EF92FF920F931F93CF93DF93CDB7DEB7C1
:100CE0002D970FB6F894DEBF0FBECDBF80E092EC1B
:100CF000A1E0B0E08C839D83AE83BF8388E0E82EC3
:100D0000F12CEC0EFD1E68E671E0C7010E940C4755
:100D100066E671E08E010F5F1F4FC8010E940C470D
:100D20004091460350914703B801C7010E94CC414E
:100D300090939F0380939E03009749F00E946C411B
:100D4000AE014C5F5F4F61E071E00E94B1402D96B3
:100D50000FB6F894DEBF0FBECDBFDF91CF911F91CC
:100D60000F91FF90EF90089510929F0310929E03B1
:100D700040E060E070E083E093E00E94F12E08958F
:100D80009091A003883010F48093A003892F9927B5
:100D900008952F923F924F925F926F927F928F921F
:100DA0009F92AF92BF92CF92DF92EF92FF920F93FA
:100DB0001F93CF93DF93CDB7DEB7CD54D0400FB69E
:100DC000F894DEBF0FBECDBF7C016B011A01892BE9
:100DD00009F48EC094E0692E712C44245524AA2471
:100DE000BB24A0E0B0E000E010E07EC0C5018F7041
:100DF0009070892B69F54DE450E060E270E08E015F
:100E00000F5F1F4FC8010E943F479301220F331FFE
:100E1000220F331F2450304040E050E0D801F2014F
:100E2000022E02C0F695E7950A94E2F7EF70F07093
:100E3000ED5EFD4F80818D934F5F5F4F24503040BA
:100E40004615570561F7D301129683010C5C1F4FBD
:100E5000F6019081E92FE295EF70FF27ED5EFD4FDF
:100E600050814D010894811C911CE92FFF27EF70E0
:100E7000F070ED5EFD4F4081892F80528F3510F06C
:100E80008EE201C0892F9E012F5F3F4FA20FB31F3B
:100E90005C93F901E80DF91D4083F901E00FF11FA2
:100EA00080830F5F1F4F0894A11CB11CC5018F7078
:100EB0009070892B19F0A214B30489F4F901E00FA2
:100EC000F11F1082B701C9010E945F42B7018AE099
:100ED00090E00E94374280E190E0480E591E08944D
:100EE000C11CD11CD4011296A214B30409F07ECF08
:100EF000C35BDF4F0FB6F894DEBF0FBECDBFDF91EF
:100F0000CF911F910F91FF90EF90DF90CF90BF9006
:100F1000AF909F908F907F906F905F904F903F9099
:100F20002F9008956091A1037091A203611571053E
:100F300029F0992787FD90950E94374208951F93C5
:100F4000CF93DF93CDB7DEB722970FB6F894DEBF0D
:100F50000FBECDBF19856091A1037091A2036115E9
:100F6000710509F410C1212F33272770307080914B
:100F7000A0039927821793070CF405C1812F87706E
:100F80008330F1F0843028F48130A1F08230A8F46D
:100F90000EC08530D9F08530B0F08630D1F0873082
:100FA00019F480E791E017C08EE691E014C08FEA53
:100FB00091E011C086EA91E00EC08DE991E00BC08E
:100FC00084E991E008C08BE891E005C082E891E0F7
:100FD00002C089E791E00E949B426091A103709159
:100FE000A203212F287F283709F4AAC0293790F5BA
:100FF000283309F499C02933B0F4283109F48EC09C
:10100000293138F4283009F486C0203109F053C062
:1010100055C0283209F485C0203309F455C0203268
:1010200009F049C04EC0283509F484C0293548F478
:10103000283409F47CC0203509F44CC02034D9F59B
:1010400046C0283609F479C0203709F449C0203653
:1010500091F543C0283B09F47FC0293BA8F4283907
:1010600009F474C0293940F4283809F46CC02039D7
:10107000E9F1203801F537C0283A09F46AC0203B6D
:10108000D9F1203AC1F435C0283D09F46BC0293D9F
:1010900040F4283C09F463C0203DA1F1203C59F400
:1010A0002EC0283E29F0203F99F1203E21F42DC08A
:1010B00082EC91E059C088EB91E056C083E592E064
:1010C00053C08EE492E050C089E492E04DC084E4C5
:1010D00092E04AC08FE392E047C08AE392E044C0C6
:1010E00085E392E041C080E392E03EC08BE292E073
:1010F0003BC086E292E038C081E292E035C08CE1EC
:1011000092E032C087E192E02FC082E192E02CC0F1
:101110008DE092E029C088E092E026C083E092E072
:1011200023C08EEF91E020C089EF91E01DC084EFD5
:1011300091E01AC08FEE91E017C08AEE91E014C0E2
:1011400085EE91E011C080EE91E00EC08BED91E054
:101150000BC086ED91E008C081ED91E005C08CECFC
:1011600091E002C087EC91E00E949B42AE01445F97
:101170005F4F5A8349836A857B858091A103909153
:10118000A2030E94AF4222960FB6F894DEBF0FBEB4
:10119000CDBFDF91CF911F9108958091A1039091D0
:1011A000A2031092A2031092A1030E945B41089532
:1011B0000E9432069093A2038093A103089587E0D2
:1011C0008093A0030E94D8080895833059F084309A
:1011D00018F4882339F008C0853031F0853040F0AC
:1011E000863091F48B9801C08B9A8093A303089565
:1011F0008091A303813021F48B981092A30308956A
:101200008B9A81E08093A30308958B981092A30397
:1012100008958091A30399270895A39800000000E2
:101220004FB1A39AA498000000006FB1A49A5B98F4
:10123000000000008FB15B9A5A98000000002FB1A7
:101240005A9A42954F705527607F7727462B572B28
:10125000807F992734E0880F991F3A95E1F7482B52
:10126000592B207F3327322F2227422B532B509389
:10127000A7034093A6030895E82F862F815082305C
:1012800030F4E03120F4FF27E455FC4F60830895EB
:101290008091A803992708958093A803E091A4035F
:1012A000F091A503309739F48FEF9FEF9093A5034A
:1012B0008093A40308958FEFEF3FF80729F084810E
:1012C00095810196958384830895A39AA49A5B9A45
:1012D0005A9A1092AB038FEF9FEF9093A7038093DE
:1012E000A6030FB6F8940F921092A5031092A403D0
:1012F0000F900FBE8FEF8093A803ECEAF3E082E03B
:10130000819393E0EC3BF907D9F71092AA0310926E
:10131000A90361E088E00E943C0961E08BE00E9443
:101320003C0961E08AE00E943C0961E08CE00E9497
:101330003C0908958091A6039091A7030895AB01FD
:10134000BC0184EA93E00E945B2E20E030E08F5FD6
:101350009F4F11F421E030E0C9010895813011F46C
:10136000739A0895882309F4739808959AB19F7029
:10137000906F9AB99BB19F70607F962B9BB982301A
:1013800011F48A9801C08A9A729A0000000072983B
:101390008A988AB18F708AB98BB18F70806F8BB940
:1013A00008950F931F93082F162F8A98899A729A7F
:1013B000000000004F99FBCF72988A988998612F9E
:1013C000607F802F0E94B6091295107F612F802FB9
:1013D0000E94B6091F910F910895682F83E00E9423
:1013E000D10908951F938CE80E94612A10E063E3FD
:1013F00082E00E94B60984E00E94612A1F5F1330D8
:10140000B1F762E282E00E94B60981E00E94612A9F
:1014100068E282E00E94D10985E00E94612A6CE0C6
:1014200082E00E94D10985E00E94612A61E082E0A9
:101430000E94D10985E00E94612A66E082E00E9454
:10144000D10960E882E00E94D1091F9108950FB68A
:10145000F8940F929DB3882311F0EE9A01C0EE9894
:101460000F900FBE892F992726E0969587952A958C
:10147000E1F781709070089580E00E94270A982F0C
:101480008091BC03813011F41092BC03892F0E941B
:10149000270A80E090E008958091BC039927089581
:1014A0008091BD039091BE0308958091BD039091FA
:1014B000BE0308950F931F93CF93DF93EC018B012D
:1014C00080E090E00E94A70F05C0FE0184910E9479
:1014D0008F0F219601501040FFEF0F3F1F07A9F714
:1014E0000E94840FDF91CF911F910F9108951F9358
:1014F00080E00E94270A182F64E070E086EC95E0F7
:101500000E945A0A64E070E082EC95E00E945A0A58
:10151000812F0E94270A80E090E01F9108950F9389
:101520001F93CF93DF938C01EB0180E090E00E944A
:10153000A70F05C0F80181918F010E948F0F21979D
:10154000FFEFCF3FDF07B1F70E94840FDF91CF910C
:101550001F910F910895EF92FF920F931F93F82E12
:101560008B010E948B0FE82E80E00E94880F80E0A4
:1015700090E00E94A70F2C9882E00E948F0F8F2D81
:101580000E948F0F812F99270E948F0F802F0E941A
:101590008F0F2C9A0E94840F8E2D0E94880F1F910E
:1015A0000F91FF90EF900895DF92EF92FF920F93CB
:1015B0001F93082FE62E80E00E94270AD82E1127BD
:1015C000102F0027FF240E291F29B8018BE00E944D
:1015D000AB0A8D2D0E94270A80E090E01F910F91A9
:1015E000FF90EF90DF900895FF920F931F938C016F
:1015F00080E00E94270AF82E1C60B80180E00E945B
:10160000AB0A8F2D0E94270A80E090E01F910F9176
:10161000FF9008951F93CF93DF93CDB7DEB7219747
:101620000FB6F894DEBF0FBECDBF898380E00E9465
:10163000270A182F80E290E00E94F40A63E070E02D
:101640008EEC95E00E945A0A61E070E0CE010196AE
:101650000E948F0A64E070E08AEC95E00E945A0ACA
:10166000812F0E94270A80E090E021960FB6F8941F
:10167000DEBF0FBECDBFDF91CF911F910895282F00
:10168000332727703070C90153E0880F991F5A958E
:10169000E1F7820F931F885C0E940A0B0895DF9286
:1016A000EF92FF920F931F93CF93DF93CDB7DEB7E7
:1016B00021970FB6F894DEBF0FBECDBF89837B01A3
:1016C00080E00E94270AD82E80E290E00E94F40A6F
:1016D00089818295807F885C898363E070E089EDF1
:1016E00095E00E945A0A61E070E0CE0101960E94E6
:1016F0008F0A01ED15E064E070E0C8010E945A0A0B
:101700008E2D0E94612A64E070E085ED95E00E94D4
:101710005A0A64E070E0C8010E945A0A8D2D0E94A6
:10172000270A80E090E021960FB6F894DEBF0FBE46
:10173000CDBFDF91CF911F910F91FF90EF90DF9080
:1017400008950F931F938C0180E00E94270A109246
:10175000BC03C80184600E94F40A8AE00E94612AE6
:1017600080E48CBB80E090E01F910F910895DF92A0
:10177000EF92FF920F931F93182F0E948B0FD82E7A
:1017800080E00E94880F80E090E00E94A70F2C98D4
:1017900083E00E948F0F812F0E948F0F0E94940F71
:1017A000E82EFF24FE2CEE240E94940F082F2C9A82
:1017B0000E94840F8D2D0E94880F1127C701802B56
:1017C000912B1F910F91FF90EF90DF900895FF9262
:1017D0000F931F9380E00E94270AF82E8BE00E944F
:1017E000B70B8C018F2D0E94270AC8011F910F9102
:1017F000FF900895FF920F931F93182F80E00E948F
:10180000270AF82E812F0E94B70B8C018F2D0E9482
:10181000270AC8011F910F91FF90089589E00E9447
:10182000FA0B9C018FEF213E380790F58DE42435AB
:101830003807A1F18DE42535380768F481E42435B3
:101840003807F9F08DE424333807D9F081E42434E3
:10185000380709F516C087E52D363807F9F087E512
:101860002E36380728F487E52D343807A1F409C04F
:1018700086E72536380729F08FEF203E380759F4E0
:101880000DC08091BD039091BE03039739F403C04E
:1018900020EE3FEF03C080E090E00895C901089575
:1018A00080E00E94270A2F982C9A2898209A84E09A
:1018B0000E94612A80E00E94880F1092BC032F9A38
:1018C00084E00E94612A81E00E94B70B74E0969543
:1018D00087957A95E1F7877090709093BE03809317
:1018E000BD03039719F460E070EE02C060E078E990
:1018F00083E00E94AB0A82E30E94612A80E090E0CC
:101900000E94F40A60E080E00E94D40A82E30E9410
:10191000612A8091BD039091BE030397029710F452
:1019200082E001C081E00E94880F40E050E068EA58
:101930007CE081EF92E00E94602F66E070E081EF32
:1019400092E00E94DE2F80E48CBB80E090E008955E
:10195000BF92CF92DF92EF92FF920F931F93CF939C
:10196000DF93CDB7DEB722970FB6F894DEBF0FBE78
:10197000CDBF8091BC03813009F04FC0669B4DC044
:1019800080E00E94270AB82E78941A82198280E09B
:1019900090E00E94A70FF0E2EF2EF12C00E010E0A3
:1019A000CC24DD2403C0EFE1EE2EF12C89819A8155
:1019B000C816D906C0F0C114D10419F0C6010E949E
:1019C0007B27CE0101960E94FA268C0189819A819B
:1019D000892B19F0CC24DD2408C082E08093BC035D
:1019E000CC24DD2412C0892B41F0F80181918F01B4
:1019F0000E948F0F0894C11CD11C6699D4CF089403
:101A0000E108F108E114F10489F60E94840FC6018F
:101A10000E9418288B2D0E94270A22960FB6F89450
:101A2000DEBF0FBECDBFDF91CF911F910F91FF9011
:101A3000EF90DF90CF90BF9008950F931F93CF93B7
:101A4000DF938091BC03813009F435C080E00E94AF
:101A5000270AC8E5D2E0FE0165917491E4EEF5E055
:101A6000E4918E2F0E94AB0A00E010E011C0FE014D
:101A700065917491F801EC51FA4FE4918E2F0E9418
:101A8000AB0AC80164EF71E00E94A047892B11F4F2
:101A90000E94FF0D0F5F1F4F229681E0053B180744
:101AA00031F781E08093BC0380E090E00E94A80CB5
:101AB00081E00E94270A80E090E0DF91CF911F91A2
:101AC0000F9108951F93CF93DF9380E090E00E94E1
:101AD000A10B80E290E00E94F40A80E00E94270AB5
:101AE000182F68E070E08CED95E00E945A0A88E2B9
:101AF0000E94612A88E00E94B70BEC01812F0E94AE
:101B0000270A8091BD039091BE03039731F480E8CA
:101B1000CF37D80711F4C0E0D0E0CE01DF91CF91EC
:101B20001F910895089580916A008C7F80936A00C8
:101B300040E050E062E97DE08BEE92E00E94602F91
:101B4000892B31F480916A00826080936A00EC9A5C
:101B500080918100836080938100AD9A0FB6F894E4
:101B60000F921092C0031092BF030F900FBE089502
:101B7000EF92FF920F931F93AB01BC01A89521E058
:101B8000E12CE8E0FE2E012D112D01C02F5FD801C0
:101B9000C701022E04C0880F991FAA1FBB1F0A94F9
:101BA000D2F737E0B695A795979587953A95D1F7EF
:101BB00084179507A607B70748F32093C2032A3076
:101BC00018F029702093C2032091C20323FF02C0A2
:101BD00038E201C038E088E190E02770322B0FB680
:101BE000F894A895809360000FBE3093600081E068
:101BF0008093C1031F910F91FF90EF900895A895D6
:101C000008958091C103882319F08F5F8093C103E9
:101C100088E10FB6F89480936000109260000FBEC8
:101C200008958091C1038230C0F081508093C10338
:101C3000813099F42091C20323FF02C038E201C031
:101C400038E088E190E02770322B0FB6F894A89521
:101C5000809360000FBE3093600008958091C603AA
:101C60009091C7038130910589F08130910530F062
:101C70008230910521F10397E9F52DC078993AC09A
:101C800081E08093C50381E090E020C0789912C084
:101C90008091C5038F5F8093C5038E3159F581E034
:101CA0008093C40382E090E09093C7038093C603BF
:101CB00081E021C01092C7031092C6031BC0789B1D
:101CC00019C081E08093C50383E090E09093C7033F
:101CD0008093C6030FC08091C5038F5F8093C503B7
:101CE000843141F41092C4031092C7031092C603CA
:101CF00080E001C082E0992708958091C40399276C
:101D000008958091C8039091C903089508950F9391
:101D10001F93CF93DF93CDB7DEB72A970FB6F89412
:101D2000DEBF0FBECDBF1092C7031092C603109244
:101D3000C40367EA77E08E010F5F1F4FC8010E945E
:101D40000C47C8010E944329892BB1F420E033E0FD
:101D500040E050E068E47FE0C8010E946530892BD4
:101D600059F489E997E09F938F9380EE8F930E94B7
:101D70009F070F900F900F902A960FB6F894DEBF32
:101D80000FBECDBFDF91CF911F910F910895FF92AC
:101D90000F931F93CF93DF93CDB7DEB72A970FB67C
:101DA000F894DEBF0FBECDBF85E292E00E94D52E33
:101DB000892BB9F480E00E94270AF82E40E067E002
:101DC00070E083E292E00E94F12E8C01892B51F5A4
:101DD00040E067E070E086E492E00E94F12E8C0122
:101DE00021C00E94691380E00E94270AF82EE0912A
:101DF0003602F0913702309729F083E292E019958C
:101E0000892B59F4E0915902F0915A02309741F030
:101E100086E492E01995892B19F00FEF1FEF02C0AD
:101E200000E010E08F2D0E94270A01151105C1F472
:101E30008AEF97E09F938F9386EE8F930E949F0780
:101E400060E070E0CE0101960E94C3400F900F90B9
:101E50000F902FEF8F3F920771F00E949B400BC0B5
:101E60008BEC97E09F938F9383EE8F930E949F0755
:101E70000F900F900F90C8012A960FB6F894DEBF0E
:101E80000FBECDBFDF91CF911F910F91FF900895AD
:101E90008091C4038093C3038091C4038130B9F45B
:101EA0008091C303882349F58DEB97E09F938F932F
:101EB00086EE8F930E949F070E94C70E0F900F908F
:101EC0000F90892B29F780E10E944C09E1CF8823EC
:101ED000A1F48091C303813081F480EB97E09F935C
:101EE0008F9386EE8F930E949F078091C403809307
:101EF000C3030F900F900F90CFCF64EF71E080E09D
:101F000090E00E94732BC8CF779A2E982D9A08954F
:101F10008093CA0308958091CA03992708958EBDBE
:101F20000DB407FEFDCF08958FEF8EBD0DB407FEF3
:101F3000FDCF8EB5992708958EBD0DB407FEFDCF58
:101F40008EB599270895779A2E982D9A08959C0119
:101F50000097F9F48091CA03882321F481E08DBDB4
:101F600081E504C0813021F41DBC80E58CBD25C015
:101F7000823019F481E08DBDF8CF87E098E09F931F
:101F80008F938BE78F930E949F070F900F900F9076
:101F900014C0019741F481E08DBD80E58CBD2D9A80
:101FA0002E98779808951DBC80E58CBD21303105B1
:101FB00020F02230310541F404C0779A2D9A2E9AF0
:101FC0000895779A2E982D98089580E090E00895CE
:101FD00080E090E0089580E090E0089540E050E0D7
:101FE00060E070E08BEC93E00E945B2E0895CF934D
:101FF000DF93CEEFDFEF0E94940F8F3F11F4219714
:10200000D1F79927DF91CF910895CF93DF93CEEF4A
:10201000DFEF0E94940F8E3F11F02197D1F799279F
:10202000DF91CF910895DF92EF92FF920F931F936C
:10203000D82E8B017A0182E090E00E94A70F8FEFEB
:102040000E948F0F8D2D80640E948F0F812F992702
:102050000E948F0F802F0E948F0F8F2D99270E9433
:102060008F0F8E2D0E948F0F85E90E948F0F8FEFAB
:102070000E948F0F1F910F91FF90EF90DF900895B6
:102080006F927F928F929F92AF92BF92CF92DF9288
:10209000EF92FF920F931F93CF93DF935B01690140
:1020A0007A013801882499243AC0A601542F442784
:1020B000550FC701B60127E09695879577956795E7
:1020C0002A95D1F781E10E9413100E9405108E3FDE
:1020D00029F00E94840F81E090E026C08501C0E0D5
:1020E000D0E00E94940FF80181938F012196F2E0D5
:1020F000C030DF07B1F780E092E0A80EB91E8FEF85
:102100000E948F0F8FEF0E948F0F0E94840F089400
:10211000811C911C0894C11CD11CE11CF11C86146B
:10212000970419F680E090E0DF91CF911F910F9115
:10213000FF90EF90DF90CF90BF90AF909F908F90E7
:102140007F906F9008958BEC93E00E94082E089585
:102150002F923F924F925F926F927F928F929F92B7
:10216000AF92BF92CF92DF92EF92FF920F931F93A5
:10217000CF93DF93CDB7DEB728970FB6F894DEBFC5
:102180000FBECDBFF82E6B0139014A0118010E9424
:10219000EE0FFF2019F022E030E0A8C0C801AA2706
:1021A000BB27860D971DA81DB91D2091D003309126
:1021B000D1034091D2035091D303281739074A071E
:1021C0005B0728F483E090E09E838D8302C01E822B
:1021D0001D828091CD039091CE0397FD04C0E2E073
:1021E000F0E0FE83ED8396FD7FC02D813E81232BA1
:1021F00009F092C0DC82CB8272C03FEF231631041B
:1022000009F010F4610103C0C12CA1E0DA2E4B806B
:102210005C80840173011A82198253C0A701542F74
:102220004427550FC801B701E7E096958795779544
:102230006795EA95D1F788E10E9413100E94F70F85
:102240008F3F09F445C08EEF0E948F0F5201188610
:102250001F82F50181915F010E948F0F2F813885C8
:102260002F5F3F4F38872F832050324091F7E0E0B7
:10227000F2E04E0E5F1E8FEF0E948F0F8FEF0E94D5
:102280008F0F8FEF0E948F0F5FEFA52EB52E0E944C
:10229000940F882339F40894A108B108A114B1045B
:1022A000B9F0F5CF0894E11CF11C011D111DAB28FC
:1022B00079F00E94840F29813A812F5F3F4F3A8342
:1022C000298389819A818C159D0509F0A7CF11C0BA
:1022D0000E94840FE1E0F0E0FE83ED831DC0211435
:1022E000310409F08ACF18C028E030E03E832D8306
:1022F00013C0C601AA27BB27680E791E8A1E9B1E23
:102300002C183D08DC2CCC24DD0C8B819C818C0DA1
:102310009D1D9C838B83E3CF0E94A3108D819E81A2
:1023200028960FB6F894DEBF0FBECDBFDF91CF91D8
:102330001F910F91FF90EF90DF90CF90BF90AF90E3
:102340009F908F907F906F905F904F903F902F90D5
:1023500008958F929F92AF92BF92CF92DF92EF92A9
:10236000FF920F931F93CF93DF93F82EEB01490158
:102370005A0168010E94EE0FFF20F1F48091CD0315
:102380009091CE0397FF18C0C801AA27BB27880DDC
:10239000991DAA1DBB1D2091D0033091D1034091FE
:1023A000D2035091D303281739074A075B0708F077
:1023B00042C003E010E044C002E010E041C02FEF53
:1023C000C216D10409F010F4E60102C0C0E0D1E069
:1023D0008E01A5019401B7018DEC93E00E9440109D
:1023E0008C01892B69F5CE01AA27BB27880E991E7F
:1023F000AA1EBB1ECC1ADD0A8091D4039091D5038E
:102400009C01C29FC001C39F900DD29F900D1124CB
:10241000E80EF91EC114D10491F600E010E010C0DE
:1024200001E010E0A5019401BE018DEC93E00E9453
:1024300040108C0105C07E010130110559F7F0CF25
:102440000E94A310C801DF91CF911F910F91FF90BF
:10245000EF90DF90CF90BF90AF909F908F900895B6
:10246000EF92FF920F931F93182F0E94EE0F1123EC
:1024700021F0EE24FF24870108C0E090D003F09003
:10248000D1030091D2031091D3030E94A310C8017D
:10249000B7011F910F91FF90EF9008951F93CF9375
:1024A000DF93182F0E94EE0F112319F0C0E0D0E047
:1024B00004C0C091D403D091D5030E94A310CE01D3
:1024C000DF91CF911F910895CF92DF92EF92FF920B
:1024D0000F931F93CF93DF93CDB7DEB760970FB6FF
:1024E000F894DEBF0FBECDBF6B010E94EE0F80914E
:1024F000CD039091CE0397FF8AC040E050E060E0AA
:1025000070E089E00E9413100E9405108E3F61F078
:1025100085E198E09F938F9383EF8F930E949F07AD
:102520000F900F900F9073C08E010F5F1F4F0E948E
:10253000940FF80181938F01CE014196E817F907B6
:10254000B1F78FEF0E948F0F8FEF0E948F0F0E94C5
:10255000840FEE80FFE0EF2221E030E0C90102C0ED
:10256000880F991FEA94E2F77C016F8177276370E7
:102570007070762F6627770F770FE885FF27EE0FAD
:10258000FF1FEE0FFF1F6E2B7F2B09851127EA859A
:10259000FF27E370F070DF01AA0FBB1FEA2BFB2BB4
:1025A000AB85BB2786E0169507958A95E1F7602BEA
:1025B000712B6F5F7F4F88279927AA0FAB2FAA1F18
:1025C000BB0BB195EA2BFB2B329602C0220F331FB7
:1025D000EA95E2F7442755270E9461476093D003AC
:1025E0007093D1038093D2039093D303F092D503D9
:1025F000E092D4030E94A31001E010E020E030E05C
:1026000040E050E0B60180E00E94A91104C00E94A1
:10261000A31081E090E060960FB6F894DEBF0FBE85
:10262000CDBFDF91CF911F910F91FF90EF90DF9081
:10263000CF900895CF93DF937093D7036093D60321
:102640005093D9034093D80389E0EDECF3E0119265
:102650008A95E9F71092CF038BEC93E00E94082E45
:10266000C0E0D0E08FEF0E948F0F2196CA30D105D5
:10267000C9F740E050E060E070E080E00E94131095
:102680000E94F70F813099F4CFEFDFEF07C040E0F1
:1026900050E060E070E081E00E9413100E94940F0F
:1026A000882319F0219799F702C0CD2B29F40E94B5
:1026B000840F81E090E00AC00E94840F80E090E8DF
:1026C0009093CE038093CD0380E090E0DF91CF9193
:1026D00008951092DB031092DA030895EF92FF92AF
:1026E0000F931F93CF93DF93EC017A018B018B81C2
:1026F00080FD1AC08EEF9FEFAFEFBFEFE80EF91E1F
:102700000A1F1B1F2A81332744275527C801B701F9
:102710000E946147AB01BC018A8D9B8DAC8DBD8D44
:10272000480F591F6A1F7B1FCB01BA01DF91CF9160
:102730001F910F91FF90EF9008958FEF9FEF0895F5
:102740008FEF9FEF0895282F8F3F11F420E006C0F0
:10275000882321F099270E94D547282F822F992777
:1027600087FD909508958F929F92AF92BF92CF92DE
:10277000DF92EF92FF920F931F93FC016A017B019E
:10278000838180FF07C0CB01BA016F5F7F4F8F4FFE
:102790009F4F69C0808182889388A488B5886091A2
:1027A000DE037091DF038130A9F5A7019601A7E050
:1027B0005695479537952795AA95D1F7280D391D38
:1027C0004A1D5B1D01E010E081810E94A9118091EA
:1027D000DE039091DF03F601EF77F070EE0FFF1F3D
:1027E000EE0FFF1FE80FF91F6081718182819381D5
:1027F0009F706F3F2FEF72072FEF82072FE0920736
:1028000071F1673F2FEF72072FEF82072FE09207DA
:1028100051F525C055274F2D3E2D2D2D280D391D45
:102820004A1D5B1D01E010E081810E94A911809189
:10283000DE039091DF03F601F070EE0FFF1FE80F4B
:10284000F91F208131818FEF2F3F380741F08FEF43
:10285000273F380721F0B9018827992704C060E095
:1028600070E080E090E01F910F91FF90EF90DF907B
:10287000CF90BF90AF909F908F9008952F923F92EE
:102880004F925F926F927F928F929F92AF92BF9280
:10289000CF92DF92EF92FF920F931F93CF93DF932C
:1028A000CDB7DEB76A970FB6F894DEBF0FBECDBFC7
:1028B000988B8F877A8B698B5C8B4B8B18012901E6
:1028C000FE8AED8AD88ECF8AD7011D921D921D9265
:1028D0001C921397DA010D900020E9F71197A41BC1
:1028E000B50BCD010C966DE070E00E94A047F62F6D
:1028F000F064F983F53E09F496C18DE0689F90017C
:1029000011243B832A832F3331050CF08CC17901CC
:10291000BF2E1E86CC24DD2480C1B201A1018F858B
:1029200098890E946E13688779878A879B87EF85CD
:10293000F8898281282F33273D872C8731E02316A1
:1029400031044104510479F48081882361F4828543
:102950009385A485B58588879987AA87BB872681B3
:1029600037813D872C87688479848A849B8442C11F
:102970006091DE037091DF0301E010E0A401930198
:10298000EF85F88981810E94A9112091DE033091A1
:10299000DF033F832E838091E0039091E1039D83C9
:1029A0008C833A8F298F9E85913019F4E98DFA8DA9
:1029B0001DC02F89388D232B99F5A98DBA8D8C9147
:1029C000853E71F1882361F14BE050E069897A8995
:1029D000CD010E942947892B19F5E989FA89938548
:1029E000E98DFA8D838589238917D1F484899589A6
:1029F000AA27BB27AC0133272227828D938DAA27D4
:102A0000BB27282B392B4A2B5B2B848D958DA68DCC
:102A1000B78DED89FE8980839183A283B38307C13B
:102A2000E98DFA8D83858F3009F0D0C0A080AB147A
:102A300009F0CCC0B6FE0DC0BFEBAB2EAB20AC8115
:102A4000BD81AE0DBF1D1C920894E108F108CC8039
:102A5000DD80E98DFA8D868D978D0E94A313F60196
:102A6000EE0DFF1D8083870101501040E98DFA8D26
:102A7000848D958D0E94A313F601E00FF11F8083D2
:102A800001501040E98DFA8D808D918D0E94A31325
:102A9000F601E00FF11F808301501040E98DFA8D9F
:102AA000868997890E94A313F601E00FF11F8083A6
:102AB00001501040E98DFA8D848995890E94A313F5
:102AC000F601E00FF11F808301501040E98DFA8D6F
:102AD000828993890E94A313F601E00FF11F80837E
:102AE00001501040E98DFA8D808991890E94A313CD
:102AF000F601E00FF11F808301501040E98DFA8D3F
:102B0000868597850E94A313F601E00FF11F80834D
:102B100001501040E98DFA8D818592850E94A313A2
:102B2000F601E00FF11F808301501040E98DFA8D0E
:102B3000878190850E94A313F601E00FF11F808327
:102B400001501040E98DFA8D858196810E94A31372
:102B5000F601E00FF11F808301501040E98DFA8DDE
:102B6000838194810E94A313F601E00FF11F8083FB
:102B700001501040E98DFA8D818192810E94A3134A
:102B8000F601E00FF11F8083BA2CBA9429F0780186
:102B90000894E108F1081AC0AB89BC890D900020A7
:102BA000E9F711972B893C89A21BB30BAD01B60144
:102BB000C9010E942947892B31F4EA80FB80B98042
:102BC00031E03E8703C0EA80FB80B980898D9A8D11
:102BD00080969A8F898F8E819F8180509E4FA98D7C
:102BE000BA8DA817B90709F0DECE0894611C711CD4
:102BF000811C911CC301E885F9858E1B9F0B2C85D8
:102C00003D85821793070CF4B3CEB201A1018F85E5
:102C100098890E94B3131B012C0121143104410433
:102C2000510409F07ACE20E030E040E050E0CA01E3
:102C3000B9016A960FB6F894DEBF0FBECDBFDF9123
:102C4000CF911F910F91FF90EF90DF90CF90BF90A9
:102C5000AF909F908F907F906F905F904F903F903C
:102C60002F90089588E494E00E94082E089588E447
:102C700094E00E94082E089540E050E060E070E08B
:102C800088E494E00E945B2E08952F923F924F9229
:102C90005F926F927F928F929F92AF92BF92CF92EC
:102CA000DF92EF92FF920F931F93CF93DF93CDB7F5
:102CB000DEB728970FB6F894DEBF0FBECDBF8C01EC
:102CC0006B015E834D830E943C160115110509F4CA
:102CD000F6C0F8010481158118870F8301151105CD
:102CE00009F4EDC06D817E816115710509F4E7C0BD
:102CF000F801E484F58406851785208131814281BD
:102D00005381E216F3060407150708F0D2C0CB0181
:102D1000AA2797FDA095BA2F8E0D9F1DA01FB11F4A
:102D2000281739074A075B0720F42E193F093E830D
:102D30002D83EF81F885008CF18DE02DFC83EB83F2
:102D4000DA82C982248035804D805E80ABC0EF81FD
:102D5000F88560887188828893885101CC24DD24AD
:102D600040855185628573858B819C810E946E139D
:102D70007B018C01C401B301A60195010E94B347F8
:102D8000442737FD4095542F2E0D3F1D401F511FE6
:102D90006091DE037091DF0301E010E0EB81FC81C4
:102DA00081810E94A911892B09F079C0C401B30166
:102DB000A60195010E94B3476101421453040CF42B
:102DC0006201CB018C0D9D1D281639061CF4610192
:102DD000C61AD70A8091DE039091DF03680F791F2E
:102DE000A60189819A810E94364776010027F7FC67
:102DF0000095102FEF81F885248535854685578508
:102E00002E0D3F1D401F511F24873587468757874A
:102E100080899189A289B3898E0D9F1DA01FB11F42
:102E2000808B918BA28BB38B80819181A281B381A6
:102E3000281739074A075B0720F081E090E0978B5D
:102E4000868BEF81F8852089318942895389EB810E
:102E5000FC81868D978DA0A1B1A1281739074A075B
:102E60005B07A0F0EF81F885408551856285738509
:102E70008B819C810E94B313EF81F88560877187F5
:102E800082879387108A118A128A138A69817A81CC
:102E90006C0D7D1D7A8369834C185D0803C08DEF2E
:102EA0009FEF09C04114510409F051CF0D811E81DB
:102EB00008C08EEF9FEFEF81F885958B848B00E043
:102EC00010E00E943716C80128960FB6F894DEBFAE
:102ED0000FBECDBFDF91CF911F910F91FF90EF906B
:102EE000DF90CF90BF90AF909F908F907F906F902A
:102EF0005F904F903F902F900895EF92FF920F9325
:102F00001F93CF93DF93EC010E943C16209749F06A
:102F1000EC81FD81309729F0E080F18002811381FE
:102F200008C00FEFE02E0FEFF02E0FEF002F0FEF86
:102F3000102F0E943716C801B701DF91CF911F9162
:102F40000F91FF90EF900895CF93DF93EC010E94D3
:102F50003C16209719F4CFEFDFEF0BC08C819D81D9
:102F6000009711F00E940626CE010E940626C0E0BE
:102F7000D0E00E943716CE01DF91CF9108950F93D4
:102F80001F938C010E943C16012B11F41092E40354
:102F90000E9437161F910F9108952F923F924F92E2
:102FA0005F926F927F928F929F92AF92BF92CF92D9
:102FB000DF92EF92FF920F931F93CF93DF93CDB7E2
:102FC000DEB724970FB6F894DEBF0FBECDBF182F23
:102FD0000E943C168091DC039091DD03892B41F423
:102FE00080E490E00E9493259093DD038093DC03BE
:102FF0008091E0039091E103892B41F480E490E01B
:103000000E9493259093E1038093E0038091DE0377
:103010009091DF03892B59F480E092E00E94932580
:103020009093DF038093DE03892B09F445C18091DF
:10303000DC039091DD03892B09F43EC18091E0030C
:103040009091E103892B09F437C182E2189FF001C6
:103050001124EE51FC4F11928A95E9F7E12EFF24DD
:103060002701440C551CC70135E0880F991F3A957C
:10307000E1F7480E591E22EE33E0420E531EF201D4
:103080001183812F0E944E12F20195838483812F38
:103090000E94E50F019721F4F2018381816083830F
:1030A000812F0E94E80F019721F4F2018381826051
:1030B0008383F201848195818050924019F001E070
:1030C00010E0FCC0F201838181FF05C020E230E006
:1030D00040E050E038C06091DE037091DF0301E012
:1030E00010E020E030E040E050E08E2D0E94A91179
:1030F0008C01892B09F0E2C0E091DE03F091DF033F
:10310000E250FE4F80819181EE5FF14085559A4AF1
:1031100009F0D4C0E653FE4F80819181A281B38132
:10312000EA5CF1400097A105B10509F4C7C0EA5374
:10313000FE4F2081318142815381211531054105A6
:10314000510509F4BBC06091DE037091DF0301E01B
:1031500010E08E2D0E94A9112090DE033090DF0335
:103160004EEF51E0240E351ED1018D919C91E2E08D
:10317000FEEF2E0E3F1E85559A4A09F09DC0F101C3
:103180008585F2018283F101268937892115310570
:1031900071F0C901AA27BB2789839A83AB83BC83BB
:1031A000D2011C9281E090E0A0E0B0E010C0F101FB
:1031B00024A135A146A157A129833A834B835C837F
:1031C00081E0D2018C9384A595A5A6A5B7A5F201AF
:1031D00086879787A08BB18BF10163857485818980
:1031E000928925E0880F991F2A95E1F7860F971F8E
:1031F00001970E948C473B0188249924E684F78438
:1032000000271127A48CB58CC68CD78CAE0CBF1CA4
:10321000C01ED11EF201A28AB38AC48AD58A29812E
:103220003A814B815C81A20EB31EC41ED51EA68AB4
:10323000B78AC08ED18EF1016089772788279927B8
:103240000E946147F101248D358D468D578DE20E28
:10325000F31E041F151FE60CF71C081D191DE60EB2
:10326000F71E081F191FF201E28EF38E048F158FCF
:10327000F10185859927F20124813581AC01429FB6
:10328000C001439F900D529F900D1124AA27BB2788
:10329000868F978FA0A3B1A366827782808691865E
:1032A00029813A814B815C81A20EB31EC41ED51EBA
:1032B000A286B386C486D58600E010E00E94371649
:1032C000C80124960FB6F894DEBF0FBECDBFDF91C4
:1032D000CF911F910F91FF90EF90DF90CF90BF9013
:1032E000AF909F908F907F906F905F904F903F90A6
:1032F0002F9008952F923F924F925F926F927F92FC
:103300008F929F92AF92BF92CF92DF92EF92FF92F5
:103310000F931F93CF93DF93CDB7DEB72E970FB6E2
:10332000F894DEBF0FBECDBFFC01892B09F4A1C20A
:10333000848180330CF49DC282330CF490C28634B5
:1033400009F097C28CC20E943C168091E6039091CE
:10335000E7030E9493259E878D87892B09F489C2F4
:103360003090E303832D0E9430122B013C0180EE4C
:103370009FEFAFEFBFEF480E591E6A1E7B1EE9E6B6
:10338000F2E09F012C5F3F4F80819181A281B38148
:1033900084159505A605B70538F0D9018C919927B4
:1033A000282E882341F00CC02B5F3F4F3596B2E0AA
:1033B0002B383B0749F78D859E850E94062659C20A
:1033C0009927AA27BB2789839A83AB83BC83C30130
:1033D000B20129813A814B815C810E94B347DA01B5
:1033E000C90102E0880F991FAA1FBB1F0A95D1F7D8
:1033F00081509E4FAF4FBF4F19E0B695A795979557
:1034000087951A95D1F789879A87AB87BC874C0136
:103410005D01880C991CAA1CBB1C89819A81AB8117
:10342000BC81815A9F4FAF4FBF4F880E991EAA1E75
:10343000BB1E8F559040A040B04089839A83AB83D8
:10344000BC834091E6035091E70360E070E08D8516
:103450009E850E943F47CC24DD24760110C001E008
:1034600010E0A70196016D857E85832D0E94A8102E
:10347000892B51F40894C11CD11CE11CF11CC81407
:10348000D904EA04FB0459F780E090E00E94064367
:103490006D837E838F8398874091E6035091E70385
:1034A00060E070E08D859E850E943F47AD85BE85BA
:1034B000A254BE4F1D9281E08D938D931D928BE09F
:1034C0008D931D921C921296EFE3AE2EB12CC12C5F
:1034D000D12CFD01A192B192C192D192DF01408223
:1034E000518262827382AA5CB140BE87AD877EEF53
:1034F000E72E71E0F72EEA0EFB1E65E5862E6AEADE
:10350000962EF7019182808201E010E020E030E009
:1035100040E050E0BD01832D0E94A8108C01892B52
:1035200009F005C14091E6035091E70360E070E0C7
:103530008D859E850E943F478BEEAD85BE858C9321
:1035400088E5FD01818380E982830DE4038393E5AF
:10355000948384E485831FE41683978385E38087BF
:103560008EE2818780E3828780E092E09487838780
:10357000258680E290E09787868782E0808B128A9A
:10358000118A148A138A88EF858B178A168A8FE32B
:1035900090E0918F808F8FEF90E0938F828FED85F9
:1035A000FE85A48EB58EC68ED78E40A251A262A291
:1035B00073A289859A85AB85BC8584A395A3A6A3B0
:1035C000B7A311A610A613A612A652E0A52EB12CE1
:1035D000C12CD12CED85FE85A4A6B5A6C6A6D7A67E
:1035E00081E090E091AB80AB86E090E093AB82AB62
:1035F000E05CFF4F1082329689E28193FE87ED876F
:103600006D817E818F819885A30192010E9461471F
:10361000AD85BE856D937D938D939D938EE48D9343
:103620001D9390E29D938D9321E42D930D9385E45A
:103630008D939D939D939D939D9386E48D932D9360
:1036400084E58D9383E38D9382E38D939D939D9386
:103650009C93A955B040BE87AD87F70191828082C7
:1036600001E010E02FE330E040E050E0BD01832DA9
:103670000E94A8108C01892B09F059C001E010E0CC
:1036800025E430E040E050E06D857E85832D0E948A
:10369000A810892B09F0E7C04091E6035091E70399
:1036A00060E070E08D859E850E943F4781EA9FEF34
:1036B000AFEFBFEF480E591E6A1E7B1E82E592E5F2
:1036C000A1E6B1E4ED85FE8580839183A283B38377
:1036D000EC51FE4F82E792E7A1E4B1E6819391932A
:1036E000A193B193FE87ED87C301B20129813A818D
:1036F0004B815C810E94B347AD85BE852D933D9380
:103700004D935D93FD01A082B182C282D382EC5EB3
:10371000F140FE87ED87D7018D929C9220E430E046
:1037200040E050E0BF01832D0E94A8108C010115DC
:10373000110509F086C04091E6035091E70360E06F
:1037400070E08D859E850E943F472D853E8588EFE0
:103750009FEFAFEFBFE0F90181939193A193B193F4
:103760009F018FEF9FEFAFEFBFE0ED85FE85848374
:103770009583A683B783F90184839583A683B78352
:1037800001E010E02FE530E040E050E06D857E85FF
:10379000832D0E94A8108C01892B09F052C0C98486
:1037A000DA84EB84FC848FE590E0A0E0B0E0C80E02
:1037B000D91EEA1EFB1E01E010E0A70196016D85EF
:1037C0007E85832D0E94A810892B09F04CC0409162
:1037D000E6035091E70360E070E08D859E850E94CE
:1037E0003F4795E4AD85BE859C9324E5FD0121838B
:1037F00088E48283938382E584838EE4858385E5F0
:103800008683278380E280878187828788E0838719
:10381000158A148A138E128EED85FE85148E158EF0
:10382000168E178E89859A85AB85BC85C80ED91EE4
:10383000EA1EFB1EA7019601BF01832D0E94A8105E
:103840008C018D859E850E9406260E943716012BCD
:1038500081F4832D0E94CD17009769F00AC0605053
:10386000704139F470CD8D859E850E9406260E9498
:1038700037168FEF9FEF2E960FB6F894DEBF0FBE70
:10388000CDBFDF91CF911F910F91FF90EF90DF900F
:10389000CF90BF90AF909F908F907F906F905F90F0
:1038A0004F903F902F9008950F931F93CF93DF93E6
:1038B0008C0180E092E00E949325EC01892B31F08D
:1038C000802F0E94CD17CE010E940626DF91CF9156
:1038D0001F910F910895EF92FF920F931F93CF9333
:1038E000DF93FC018091DA039091DB030097A9F547
:1038F0008281863409F03FC083818134E1F584817F
:103900008435C9F5848595850797A9F537C04FEBB0
:1039100057E164E57CE180E090E00E941A138C019D
:10392000892B19F00EEF1FEF14C0B70180E090E073
:103930000E946412C0E0D0E08C2F0E94CD17219627
:10394000C330D105C9F781E090E09093DB03809309
:10395000DA03C7010E9406261CC0019761F4828128
:10396000863449F483818D3431F48481803319F4B1
:1039700000E010E00EC00FEF1FEF0BC00E943216E8
:1039800080E092E00E9493257C01892B09F0BFCF53
:10399000EFCFC801DF91CF911F910F91FF90EF9072
:1039A00008952F923F924F925F926F927F928F92E3
:1039B0009F92AF92BF92CF92DF92EF92FF920F93BE
:1039C0001F93CF93DF93CDB7DEB7A6970FB6F894CA
:1039D000DEBF0FBECDBF9EA38DA34B018091DA0346
:1039E0009091DB03892B21F48DA19EA10E946B1C79
:1039F0000E943C166090DC037090DD038DA19EA1B7
:103A0000009709F422C1FC01848180330CF41DC1AC
:103A100082330CF41DC1863409F017C119C1F401B9
:103A20008081882309F411C18AE190E00E949325E6
:103A30005C018091F4039091F503A091F603B0919D
:103A4000F7030097A105B10509F41AC1A114B10447
:103A500009F4FBC0F40180818E3209F4E7C08AE1E9
:103A6000F50111928A95E9F72090F0033090F10367
:103A70004090F2035090F303F40180818F3209F0FB
:103A800006C102C1FFE3EF16F1040CF003C183018C
:103A90000E0D1F1D992787FD90950E94D547F801AF
:103AA00080830894E11CF11C0894811C911CF40192
:103AB00080818F3209F4D2C08C3509F4CFC08823BD
:103AC00009F7CCC06EE270E0C3010E944647009740
:103AD00021F409301105D8F50BC0DC011196FD0168
:103AE00001900020E9F73197EA1BFB0B349778F53A
:103AF0008E010B5F1F4F80E2F80111928A95E9F762
:103B000048E050E060E270E0C8010E943F4743E0B7
:103B100050E060E270E0CE010D960E943F47D80170
:103B2000F301930104C08D932F5F3F4F3196808145
:103B30008E3219F08823B9F70DC0F901DE011D9608
:103B400001C08D93818131968823D9F703C021E08C
:103B500030E002C020E030E0F40180818F3209F4CF
:103B600048C08C3509F445C0882309F05FC080E265
:103B7000888B8091E50380FD8DC082EE882E83E0E6
:103B8000982E69017E010894E11CF11C92018101CB
:103B9000A301BE016B5F7F4FC4010E943E149B01D5
:103BA000AC01611571058105910509F473C0898126
:103BB0009A81AB81BC81F50180839183A283B38319
:103BC00024833583468357832087318742875387F1
:103BD0001486158616861786108A118A128A138A09
:103BE000918E808E158A148A178A168A80E090E05A
:103BF00053C080E1888B8091E50380FD4BC0690153
:103C00007E010894E11CF11C92018101A301BE0117
:103C10006B5F7F4F82EE93E00E943E141B012C01EC
:103C20006115710581059105A9F12EC0C5010E949C
:103C300006260BC086E090E00E9493258C01009739
:103C400071F5C5010E94062633C00FEF1FEF30C08B
:103C50008091E403882309F0E2CEF7CFE60CF71C4D
:103C6000F7011082F30101900020E9F78F01015064
:103C70001040061917090D30110508F068CF22CF42
:103C8000A114B10499F6E1CF0894811C911CEE2493
:103C9000FF240DCF81E090E0019761F6C7CFFC01D2
:103CA000118210828DA19EA193838283B582A4820A
:103CB0000E943716C801A6960FB6F894DEBF0FBE55
:103CC000CDBFDF91CF911F910F91FF90EF90DF90CB
:103CD000CF90BF90AF909F908F907F906F905F90AC
:103CE0004F903F902F9008958FEF9FEF08952F9260
:103CF0003F924F925F926F927F928F929F92AF927C
:103D0000BF92CF92DF92EF92FF920F931F93CF93C8
:103D1000DF935C016B014A0129013801170181E041
:103D200090E00E94A70FC0E0D0E07601850109C0B5
:103D3000F80181918F010E949C0FF70181937F010F
:103D40002196C815D905A4F3C0E0D0E07301820123
:103D500009C0F80181918F010E949C0FF7018193A6
:103D60007F012196C215D305A4F30E94840F80E041
:103D700090E0DF91CF911F910F91FF90EF90DF9036
:103D8000CF90BF90AF909F908F907F906F905F90FB
:103D90004F903F902F900895EF92FF920F931F93B3
:103DA000CF93DF93CDB7DEB722970FB6F894DEBF7F
:103DB0000FBECDBF87ED89838FEF8A83EE24FF246A
:103DC00000E010E020E030E042E050E0CE0101965B
:103DD000BC010E94771E892B19F08FEF90E002C082
:103DE0008A81992722960FB6F894DEBF0FBECDBF09
:103DF000DF91CF911F910F91FF90EF9008950F9356
:103E00001F930E94CC1E0E94CC1E082F60E070E021
:103E100020914A0430914B040EC06F5F7F4F808524
:103E200080239185891739F48AE0189F9001112425
:103E300029573D4F18C0162F462F5527FA01EE0F70
:103E4000FF1FCA01A3E0880F991FAA95E1F7E80FA9
:103E5000F91FE957FD4F80819181A281B3810097BD
:103E6000A105B105D1F630934B0420934A04CA0151
:103E70001F910F910895EF92FF920F931F93CF938D
:103E8000DF937B018C01EA0119C0209731F461E0D6
:103E900070E080E090E00E94732B0894E108F10844
:103EA000010911098FEFE8168FEFF8068FEF080769
:103EB0008FEF180719F48FEF9FEF06C00E94CC1EFA
:103EC00087FFE3CF80E090E0DF91CF911F910F91CA
:103ED000FF90EF9008955F926F927F928F929F92E2
:103EE000AF92BF92CF92DF92EF92FF920F931F9308
:103EF000CF93DF93582E4A015B01E9013801870116
:103F0000293031051CF08FEF9FEF23C0A90160E03D
:103F100070E08CE494E00E943F4750924C0481147E
:103F20009104A104B10469F0C501AA27BB278093BD
:103F30004D04BB27AB2D9A2D892D80934E04809282
:103F40004F0476019301AE016CE474E0CB010E9452
:103F5000771EDF91CF911F910F91FF90EF90DF902F
:103F6000CF90BF90AF909F908F907F906F905F9019
:103F700008958F929F92AF92BF92CF92DF92EF926D
:103F8000FF920F931F93CF93DF934B015C018A0144
:103F90006901C9010E942B43EC01009719F40FEF4E
:103FA0001FEF36C07C0124E030E040E050E060E0EC
:103FB00070E084E80E946B1F892B29F5E0914A0488
:103FC000F0914B04068004C0880C991CAA1CBB1CF1
:103FD0000A94D2F7CC24DD24EE24FF2400E010E084
:103FE00024E030E0B501A40183E80E946B1F892B17
:103FF00051F441E050E068EE73E080E090E00E9410
:104000003B1F8C0102C00FEF1FEFCE010E9428431F
:10401000C801DF91CF911F910F91FF90EF90DF903A
:10402000CF90BF90AF909F908F900895CF92DF92E6
:10403000EF92FF920F931F93E0914A04F0914B048B
:10404000068004C0660F771F881F991F0A94D2F755
:1040500069017A018A0128E030E0AB01BC0188EEF9
:104060000E946B1F1F910F91FF90EF90DF90CF90F8
:104070000895CF92DF92EF92FF920F931F93AA279A
:10408000BB27CC24DD24EE24FF2400E010E024E054
:1040900030E0AC01BD0181E80E946B1F1F910F91C0
:1040A000FF90EF90DF90CF90089560957095809588
:1040B00090952091540430915504409156045091AC
:1040C000570426233723482359232093540430933D
:1040D0005504409356045093570480E090E00895AF
:1040E000AF92BF92CF92DF92EF92FF920F931F9306
:1040F000CF93DF93CDB7DEB722970FB6F894DEBF2C
:104100000FBECDBF9B015A01492F552749838A8392
:10411000CC24DD247601850142E050E0BE016F5FD2
:104120007F4F87E50E94673D8A159B0519F480E063
:1041300090E002C08FEF9FEF22960FB6F894DEBF9B
:104140000FBECDBFDF91CF911F910F91FF90EF90E8
:10415000DF90CF90BF90AF900895AF92BF92CF9273
:10416000DF92EF92FF920F931F93CF93DF93CDB720
:10417000DEB722970FB6F894DEBF0FBECDBF9B010E
:104180005A0119828A83CC24DD2476018A0142E017
:1041900050E0BE016F5F7F4F8FE60E94673D8A153A
:1041A0009B0519F480E090E002C08FEF9FEF22960C
:1041B0000FB6F894DEBF0FBECDBFDF91CF911F9138
:1041C0000F91FF90EF90DF90CF90BF90AF90089548
:1041D0000F931F93CF93DF93CDB7DEB721970FB621
:1041E000F894DEBF0FBECDBF8C0141E050E0BE01B0
:1041F0006F5F7F4F8FE30E94AD20892BE9F48981A7
:104200009927AA27BB272091540430915504409147
:10421000560450915704822B932BA42BB52B8093DB
:10422000540490935504A0935604B0935704F80196
:1042300080839183A283B383809154049091550429
:1042400021960FB6F894DEBF0FBECDBFDF91CF91A0
:104250001F910F910895CF93DF93CDB7DEB72497C9
:104260000FB6F894DEBF0FBECDBF80E00E94633C66
:10427000009721F4CE0101960E94E82024960FB603
:10428000F894DEBF0FBECDBFDF91CF910895EF92BE
:10429000FF920F931F93CF93DF93CDB7DEB728978D
:1042A0000FB6F894DEBF0FBECDBF8C0148E050E0E2
:1042B000BE016F5F7F4F80E30E94AD207C01892BA0
:1042C00009F073C02981822F82958F706AE0869FE2
:1042D000C00111242F70820F911DD8018D939C93E2
:1042E0002A81822F82958F70869FC00111242F70A2
:1042F000820F911DF801938382832B813327C9019B
:104300008F739070B4E095958795BA95E1F7AC01FD
:10431000A3E0440F551FAA95E1F7880F991F840F5A
:10432000951F2F703070820F931F958384832C818B
:10433000822F82958F70869FC00111242F70820F6B
:10434000911D978386832D81822F82958F70869F02
:10435000C00111242F70820F911D019791878087D2
:104360008E81282F22952F70269FA0011124992736
:104370008F7090708C599F4F480F591F53874287F9
:104380002885822F82958F70869FC00111242F70FF
:10439000820F911D4A9724F04C595F4F53874287F3
:1043A0008F819927F80195878487C70128960FB6D2
:1043B000F894DEBF0FBECDBFDF91CF911F910F915B
:1043C000FF90EF900895AF92BF92CF92DF92EF925D
:1043D000FF920F931F93CF93DF93CDB7DEB7239751
:1043E0000FB6F894DEBF0FBECDBF19822FE32A832C
:1043F0005E010894A11CB11C892BA1F082E08B8383
:10440000CC24DD24760100E010E020E030E043E041
:1044100050E0B5018FE60E94673D009789F486E081
:104420008B8306C01B82CC24DD24760100E010E0E3
:1044300020E030E043E050E0B5018FE60E94673DA8
:1044400023960FB6F894DEBF0FBECDBFDF91CF919C
:104450001F910F91FF90EF90DF90CF90BF90AF90A2
:104460000895AF92BF92CF92DF92EF92FF920F9397
:104470001F93CF93DF93CDB7DEB721970FB6F89494
:10448000DEBF0FBECDBF13E1A12EB12C0FC061E086
:1044900070E080E090E00E94732B0894A108B108BE
:1044A000A114B10419F48FEF9FEF14C0CC24DD24C4
:1044B000760101E010E09E012F5F3F4F40E050E0A9
:1044C00060E070E087E50E94673D8F5F9F4FF9F2E3
:1044D00080E090E021960FB6F894DEBF0FBECDBF0E
:1044E000DF91CF911F910F91FF90EF90DF90CF90D0
:1044F000BF90AF9008952F923F924F925F926F922C
:104500007F928F929F92AF92BF92CF92DF92EF9263
:10451000FF920F931F93CF93DF933C014A012B012E
:1045200000E010E046C0C3018F73907020E430E0DB
:10453000281B390B54012815390508F4590182E06C
:10454000282E312C2A0C3B1CC1010E942B43EC016C
:10455000892BA1F1872D992788836982A501B20152
:10456000CE0102960E94364781E090E00E94E3214E
:104570008C01892B31F5CC24DD24760100E010E09C
:1045800020E030E0A101BE0187E50E94673D8C017B
:10459000CE010E94284301151105B1F40E94312279
:1045A0008C01892B89F48A189B086A0C7B1C4A0CA5
:1045B0005B1C8114910409F0B6CF06C00FEF1FEF0A
:1045C00003C0CE010E94284380E090E00E94E321D6
:1045D000C801DF91CF911F910F91FF90EF90DF9075
:1045E000CF90BF90AF909F908F907F906F905F9093
:1045F0004F903F902F9008958F929F92AF92BF92CD
:10460000CF92DF92EF92FF920F931F93CF93DF939E
:104610004C015B01EA0181E090E00E94E3218C0102
:10462000892BC1F4CC24DD24760100E010E020E0E9
:1046300030E0AE01B5018FE60E94673D8C01892B09
:1046400029F4892819F00E9431228C0180E090E041
:104650000E94E321C801DF91CF911F910F91FF903C
:10466000EF90DF90CF90BF90AF909F908F90089584
:10467000EF92FF920F931F93CF93DF93CDB7DEB7E7
:104680002A970FB6F894DEBF0FBECDBF8B017A011B
:104690002AE0FE01319611922A95E9F723E0880F6E
:1046A000991F2A95E1F78A836115710509F47AC08B
:1046B00040FF12C0FB0140815181842F6AE00E94BB
:1046C0008047282F2295207FCA016AE070E00E946F
:1046D000A047280F20682B83E1FE12C0F801428119
:1046E0005381842F6AE00E948047282F2295207FE3
:1046F000CA016AE070E00E94A047280F20682C835E
:10470000E2FE12C0F80144815581842F6AE00E94C4
:104710008047282F2295207FCA016AE070E00E941E
:10472000A047280F20682D83E3FE12C0F8014681C0
:104730005781842F6AE00E948047282F2295207F8E
:10474000CA016AE070E00E94A047280F20682E830B
:10475000E4FE14C0F80140855185842F8F5F6AE024
:104760000E948047282F2295207FCA0101966AE087
:1047700070E00E94A047280F20682F83E7FE12C038
:10478000F80144855585842F6AE00E948047282FD0
:104790002295207FCA016AE070E00E94A047280F9E
:1047A000206829874AE050E0BE016F5F7F4F81E0BB
:1047B00090E00E94FC222A960FB6F894DEBF0FBE4E
:1047C000CDBFDF91CF911F910F91FF90EF90089592
:1047D000EF92FF920F931F93CF93DF93CDB7DEB786
:1047E00028970FB6F894DEBF0FBECDBF7B018A01BC
:1047F000FA011182108292E1FB0111929A95E9F778
:1048000048E050E0BE016F5F7F4F880F880F880F30
:104810000E94AD20BC01892B09F09FC0298127FF90
:1048200020C0F8018081918181609183808333274A
:10483000C9018F779070F4E095958795FA95E1F727
:10484000AC01E3E0440F551FEA95E1F7880F991F8B
:10485000840F951F2F703070820F931FF701918383
:1048600080833A8137FF13C0F80180819181826093
:1048700091838083832F82958F702AE0829FC0016D
:1048800011243F70830F911DF701938382832B8145
:1048900027FF20C0F801808191818460918380830B
:1048A0003327C9018F779070A4E095958795AA95D5
:1048B000E1F7AC01F3E0440F551FFA95E1F7880FDB
:1048C000991F840F951F2F703070820F931FF7016F
:1048D000958384833C8137FF13C0F80180819181E7
:1048E000886091838083832F82958F702AE0829FD6
:1048F000C00111243F70830F911DF70197838683B8
:104900003D8137FF14C0F8018081918180619183DE
:104910008083832F82958F702AE0829FC0011124AB
:104920003F70830F911D0197F701918780873F8129
:1049300037FF13C0F8018081918180689183808363
:10494000832F82958F702AE0829FC00111243F70CF
:10495000830F911DF70195878487CB0128960FB6A9
:10496000F894DEBF0FBECDBFDF91CF911F910F91A5
:10497000FF90EF9008950F931F93CF93DF93CDB7E0
:10498000DEB72A970FB6F894DEBF0FBECDBF8C01FD
:104990008AE0FE01319611928A95E9F70115110519
:1049A00009F481C080E38A83F80140815181842F1A
:1049B0006AE00E948047282F2295207FCA016AE082
:1049C00070E00E94A047280F2B8342815381842FDF
:1049D0006AE00E948047282F2295207FCA016AE062
:1049E00070E00E94A047280F2C8344815581842FBA
:1049F0006AE00E948047282F2295207FCA016AE042
:104A000070E00E94A047280F20682D8346815781BF
:104A1000842F6AE00E948047282F2295207FCA01B8
:104A20006AE070E00E94A047280F2E8340855185E0
:104A3000842F8F5F6AE00E948047282F2295207F75
:104A4000CA0101966AE070E00E94A047280F2F83F8
:104A500042855385443651059CF0842F84566AE084
:104A60000E948047282F2295207FCA0184569040BB
:104A70006AE070E00E94A047280F288780E20FC0FC
:104A8000842F6AE00E948047282F2295207FCA0148
:104A90006AE070E00E94A047280F288789E18A8792
:104AA000F801848589874AE050E0BE016F5F7F4F3F
:104AB00080E090E00E94FC222A960FB6F894DEBFB8
:104AC0000FBECDBFDF91CF911F910F9108958093BD
:104AD000EA0208950E94F12C20E033E040E050E02B
:104AE00069E275E085EE92E00E9465308EEF0E94EB
:104AF00097290E941B2A0E9462292091EA022F3FD7
:104B0000C1F393B783B7817F822B83BF83B7816063
:104B100083BF889583B78E7F83BF83B7817F9E7065
:104B2000892B83BFE6CF0F931F93CF93DF93009121
:104B3000590410915A048017910730F080E090E0FA
:104B400060C0EF01DB012FC0AC014A5F5F4F443012
:104B5000510510F444E050E0E091F706F091F806BA
:104B600067EF76E0C0E0D0E0A0E0B0E017C02081C1
:104B700031812417350760F02417350711F320978A
:104B800029F0888199812817390710F4EF01DB019A
:104B9000BF016E5F7F4F0280F381E02D309739F7C0
:104BA000CE01209771F128813981CA010A966A8164
:104BB0007B818217930770F4FE01E40FF51F241B1D
:104BC000350B318320837383628359834883ED934C
:104BD000FC9302C06D937C93E881F9810E1B1F0B3F
:104BE00010935A0400935904EC0FFD1F34978FEE75
:104BF0009EEBADEABEED80839183A283B383CE01A9
:104C00000296DF91CF911F910F910895CF93DF937B
:104C1000DC0112976D917C911197E091F706F0916C
:104C2000F806C7EFD6E03AC040815181CF01840F2A
:104C3000951F8A179B07C1F49A01260F371F3183EE
:104C4000208382819381DF01A20FB31FA817B907C8
:104C500091F58D919C911197280F391F31832083F5
:104C6000ED018A819B8125C0AE17BF0778F4B98317
:104C7000A8832D913C911197CD01820F931F8E1720
:104C80009F0779F0ED01FB83EA8315C0A817B907E8
:104C900028F1EF0122960280F381E02D309721F672
:104CA00017C0240F351F11963C932E938281938158
:104CB000FD01938382838091590490915A04860F59
:104CC000971F90935A048093590480E090E008C0A5
:104CD000FD0113821282B983A883EDCF8FEF9FEF7E
:104CE000DF91CF910895FC0161937193CF010E94F0
:104CF000062608958091590490915A0408950F93BF
:104D00001F93CF93DF938C010E949325EC010097B2
:104D100029F0A80160E070E00E943F47CE01DF91DA
:104D2000CF911F910F910895809164049091650433
:104D3000909369048093680490936C0480936B044F
:104D400010926A0410926D0422E02093FFFF21E08C
:104D500020935B041092600410926104109262042C
:104D600010926304089580E090E890936504809326
:104D7000640480E090EC909367048093660480E084
:104D800090E8A7E0B0E080935C0490935D04A0936A
:104D90005E04B0935F040E9494260895FC01809104
:104DA0005B04882389F490916A0480916D049817BC
:104DB00059F4209168043091690480916B049091BA
:104DC0006C048217930740F4809166049091670405
:104DD0002091680430916904821B930B9183808336
:104DE00080916A048E5F8093FFFF809168049091A8
:104DF00069040895FC0180915B04882319F01182F5
:104E0000108227C090916A0480916D04981759F41C
:104E100020916B0430916C04809168049091690436
:104E20002817390768F080916604909167042091F3
:104E30006B0430916C04821B930B9183808309C0B7
:104E4000821B930B91838083892B19F481E08093DB
:104E50005B0480916D048E5F8093FFFF80916B04F3
:104E600090916C040895009709F440C06091680423
:104E700070916904680F791F7093690460936804E6
:104E800010925B049C014427552780916004909107
:104E90006104A0916204B0916304820F931FA41F68
:104EA000B51F8093600490936104A0936204B09353
:104EB0006304809166049091670468177907B1F4E0
:104EC00080916404909165049093690480936804D0
:104ED00080916A048F5F80936A048E3114F010927F
:104EE0006A0480916A048E5F8093FFFF809168045A
:104EF000909169040895009709F452C060916B0481
:104F000070916C04680F791F70936C0460936B044C
:104F10009C01442755278091600490916104A091E1
:104F20006204B0916304821B930BA40BB50B8093B6
:104F3000600490936104A0936204B0936304809131
:104F400066049091670468177907B1F4809164044E
:104F50009091650490936C0480936B0480916D0430
:104F60008F5F80936D048E3114F010926D048091E8
:104F70006D048E5F8093FFFF20916B0430916C0471
:104F800080916804909169042817390749F4909139
:104F90006D0480916A04981719F481E080935B0492
:104FA00080916B0490916C0408950097D9F1609101
:104FB000680470916904680F791F709369046093A5
:104FC00068049C01442755278091600490916104F6
:104FD000A0916204B0916304820F931FA41FB51FB8
:104FE0008093600490936104A0936204B09363047F
:104FF00010925B04809166049091670468177907AA
:1050000089F480916404909165049093690480937D
:10501000680480916A048F5F80936A048E3114F073
:1050200010926A0480916D048E5F8093FFFF089553
:10503000009709F44DC060916B0470916C04680F87
:10504000791F70936C0460936B049C01442755276F
:105050008091600490916104A0916204B091630416
:10506000821B930BA40BB50B809360049093610497
:10507000A0936204B09363048091660490916704E6
:105080006817790789F4809164049091650490937E
:105090006C0480936B0480916D048F5F80936D042A
:1050A0008E3114F010926D0420916B0430916C04D9
:1050B00080916804909169042817390749F4909108
:1050C0006D0480916A04981719F481E080935B0461
:1050D00080916A048E5F8093FFFF089560915C0465
:1050E00070915D0480915E0490915F042091600452
:1050F000309161044091620450916304621B730B10
:10510000840B950B08956091600470916104809107
:105110006204909163040895809160049091610409
:10512000A0916204B091630480509044A040B040CC
:105130008093600490936104A0936204B09363042D
:1051400080916D048F5F80936D048E3114F0109206
:105150006D0480916D048E5F8093FFFF0895CF935F
:10516000DF93DC019B01EC01788F6F8B1D821C8229
:105170000FB6F8940F92EB01E881F9818FEFEF3FC2
:10518000F80749F4ED018C819D8101969D838C8304
:10519000E0E0F0E015C0309799F00F900FBEED0100
:1051A0009A8908C09F012E5F3F4F0280F381E02D56
:1051B000309719F082899817A8F70FB6F8940F92D4
:1051C000ED01FB83EA83F901B183A083EA81FB81CE
:1051D000309771F084819581892B51F08C819D816C
:1051E00024813581820F931F9D838C8315821482C5
:1051F0000F900FBEDF91CF910895CF93DF939C0165
:10520000DB010FB6F8940F92ED91FC9111970F907E
:105210000FBE8FEFEF3FF80731F527C082819381F2
:10522000E217F307E9F40FB6F8940F9211969C93E6
:105230008E9384819581892B59F0A281B381109737
:1052400029F084819581ED019D838C8315821482E0
:105250000F900FBEF90113821282108E178A05C0BB
:10526000DF011296FC013097C9F6DF91CF910895C6
:10527000FB01168A158A82E087876BEF76E0CF0103
:105280000E94AF2808950F931F93CF93DF938C0153
:10529000C091F906D091FA060CC0B801CE0106966D
:1052A0000E945147892B11F4CE0107C00990D88183
:1052B000C02D209791F780E090E0DF91CF911F9172
:1052C0000F910895E091FF06F0910007309741F0AB
:1052D000838994890E940626109200071092FF0687
:1052E0000895CF93DF93C091F906D091FA060E94FA
:1052F00062292091FD063091FE06E9EFF6E00AC032
:1053000088819981C217D30719F49183808304C0DF
:10531000FE01EC012097A1F78091FD069091FE0619
:10532000909300078093FF06DF91CF9108950F932C
:105330001F93182FE091FD06F091FE0602896BEF96
:1053400076E0CF010E94FD28E091FD06F091FE0677
:10535000128B1F3F49F06BEF76E08091FD06909134
:10536000FE060E94AF2802C00E947129E091FD064E
:10537000F091FE068091FB069091FC06E817F90774
:1053800019F481E0878709C082E087870FB6F89417
:105390000F920E9426300F900FBE802F99271F91E9
:1053A0000F9108958FEF0E9497290895CF93DF936F
:1053B000C091F906D091FA0620C00FB6F8940F926A
:1053C0008C819D810F900FBE892BA1F0EF89F88D04
:1053D0000FB6F8940F928C819D8101979D838C83E9
:1053E0000F900FBE808191818F5F9F4F19F0CF0189
:1053F0000E94792D0990D881C02D2097F1F60E9446
:10540000652CE091FD06F091FE068091FB069091DF
:10541000FC06E817F90761F08785813011F482E016
:1054200087870FB6F8940F920E9426300F900FBE18
:10543000DF91CF910895E091FD06F091FE06828103
:105440009381892B69F06BEF76E0CF010E94FD28F4
:105450006BEF76E08091FD069091FE060E94AF28EA
:105460000E94D62908958091070790910807A0917E
:105470000907B0910A070196A11DB11D8093070786
:1054800090930807A0930907B0930A0708959B011A
:10549000AC01609101077091020780910307909120
:1054A00004070E94614728EE33E040E050E00E948C
:1054B000B34701C000002150310941095109D0F71B
:1054C00008959927AA27BB27BC01CD0128EE33E018
:1054D00040E050E00E9461470E94472A0895CF9320
:1054E000DF93EC011B821A82E0910507F091060719
:1054F0001AC0288539854A855B8580859185A28576
:10550000B385281739074A075B0780F0281B390B3A
:105510004A0B5B0B288739874A875B87FB83EA83C3
:105520000190F081E02D309721F718C0821B930B7A
:10553000A40BB50B80879187A287B387F983E88393
:10554000D383C283EA81FB81309719F0D183C08372
:1055500008C0D0930607C093050703C019821882BC
:10556000F1CFDF91CF910895CF93DF93FC011482A7
:105570001582168217821586148680859185A285EC
:10558000B3850097A105B10561F1A281B381808146
:105590009181109719F08D939C9304C09093060706
:1055A00080930507C081D1812097A1F082819381EA
:1055B0009B838A8388859985AA85BB8520853185CB
:1055C00042855385820F931FA41FB51F8887998733
:1055D000AA87BB871086118612861386CF010E9488
:1055E0006F2ADF91CF9108950FB6F8940F926091D2
:1055F0000707709108078091090790910A070F909B
:105600000FBE0895AF92BF92CF92DF92EF92FF92BA
:105610000F93CF93DF936B017C01EA01590180E185
:1056200090E00E949325FC01892B81F10FB6F8943C
:105630000F928091070790910807A0910907B091F8
:105640000A070F900FBE8C0D9D1DAE1DBF1D209132
:105650006E0430916F044091700450917104821B6C
:10566000930BA40BB50B80879187A287B38700FFAC
:1056700005C0148215821682178204C0C482D582A6
:10568000E682F782D587C487B786A686CF01DF91E9
:10569000CF910F91FF90EF90DF90CF90BF90AF90A0
:1056A00008950F93CF93DF930E94022BEC01009794
:1056B00011F00E946F2ACE01DF91CF910F910895D2
:1056C000CF92DF92EF92FF920F936A0179010E94CD
:1056D00037319701A6010E94512B0F91FF90EF9057
:1056E000DF90CF900895AF92BF92CF92DF92EF926A
:1056F000FF920F93CF93DF935B016C0161157105EE
:1057000081059105D1F1CBEFD6E0BE018091FD0678
:105710009091FE060E94FD28E091FD06F091FE06A4
:1057200083E08787E090FD06F090FE0601E0970198
:1057300048E359E2C601B5010E94602BF701968B40
:10574000858B892B19F00E94D62919C0E091FD069E
:10575000F091FE06D08FC78B8091FB069091FC06DE
:105760009383828381E087878091FD069091FE0676
:105770009093FC068093FB0602C00E941B2ADF91D7
:10578000CF910F91FF90EF90DF90CF90BF90AF90AF
:1057900008952F923F924F925F926F927F928F92D5
:1057A0009F92AF92BF92CF92DF92EF92FF920F93B0
:1057B0001F93CF93DF93CDB7DEB724970FB6F8943E
:1057C000DEBF0FBECDBF0FB6F8940F92A0900707B3
:1057D000B0900807C0900907D0900A070F900FBE3D
:1057E0000E940D319B01AC01C601B5010E94B34777
:1057F00039014A010E940D311B012C010E940D311B
:1058000069837A838B839C83C401B30128EE33E0E0
:1058100040E050E00E9461477B018C01C401B3016C
:10582000A20191010E946147A61AB70AC80AD90AC3
:10583000C601B50128EE33E040E050E00E94614728
:1058400029813A814B815C810E94B347E20EF31EAD
:10585000041F151FC801B70124960FB6F894DEBFC8
:105860000FBECDBFDF91CF911F910F91FF90EF90B1
:10587000DF90CF90BF90AF909F908F907F906F9070
:105880005F904F903F902F900895EF92FF920F936B
:105890001F930FB6F8940F92E0900707F090080757
:1058A0000091090710910A070F900FBE0E940D3159
:1058B0009B01AC01C801B7010E94B347CA01B901FD
:1058C0001F910F91FF90EF900895EF92FF920F9329
:1058D0001F93CF93DF930FB6F8940F922091070791
:1058E000309108074091090750910A070F900FBEA9
:1058F00080916E0490916F04A0917004B091710436
:1059000079018A01E81AF90A0A0B1B0B20936E042D
:1059100030936F0440937004509371044FC0888596
:105920009985AA85BB85E816F9060A071B07A0F426
:105930008E199F09A00BB10B88879987AA87BB870F
:105940000097A105B10521F0EE24FF24870136C0A0
:10595000EE24FF24870108C0E81AF90A0A0B1B0B82
:10596000188619861A861B86EC85FD85309721F0EE
:105970006E857F85CE011995E0910507F0910607A8
:105980000190F081E02DF0930607E0930507309732
:1059900011F0138212828C819D81AE81BF81888734
:1059A0009987AA87BB870097A105B10521F4CE018D
:1059B0000E94062603C0CE010E946F2AC0910507EF
:1059C000D0910607209731F0E114F104010511058B
:1059D00009F0A5CFDF91CF911F910F91FF90EF902C
:1059E000089583E39AE20E941231809170008260F0
:1059F000809370000FB6F8940F92209107073091B2
:105A000008074091090750910A070F900FBE0FB683
:105A1000F8940F928091070790910807A0910907C9
:105A2000B0910A070F900FBE281739074A075B0786
:105A300071F30FB6F8940F92209107073091080781
:105A40004091090750910A070F900FBE13C0809133
:105A5000010790910207A0910307B09104070196F6
:105A6000A11DB11D8093010790930207A093030726
:105A7000B09304070FB6F8940F92809107079091A6
:105A80000807A0910907B0910A070F900FBE2817C9
:105A900039074A075B07D9F2609101077091020745
:105AA000809103079091040727E630E040E050E042
:105AB0000E94614760930107709302078093030778
:105AC000909304076091010770910207809103078A
:105AD000909104072AE130E040E050E00E94B34793
