:100000000C947B040C94ED040C94ED040C94ED041E
:100010000C94ED040C94B7310C94ED040C947332F1
:100020000C94ED040C94ED040C94ED040C94ED048C
:100030000C94ED040C945F330C94ED040C94ED04DB
:100040000C94ED040C94ED040C94ED040C94ED046C
:100050000C94ED040C94ED040C94ED040C94E93232
:100060000C94ED040C94D73E0C94ED040C94523F88
:100070000C94ED040C94ED040C94ED040C94ED043C
:100080000C94ED040C94ED040C94ED040C94ED042C
:100090000C94CC3F0C94ED040C9447400C945D3EC2
:1000A0000C94ED040C94ED040C94ED040C94ED040C
:1000B0000C94ED040C94ED040C94ED040C94ED04FC
:1000C0000C94ED040C94ED040C94ED04DA34233517
:1000D0006A359035A435CC35D435F935D7341B364F
:1000E000623668366E36743691367A369136C73651
:1000F0009C36B1365254432074696D65205B2530BF
:1001000032643A253032643A253032645D00486505
:100110006C6C6F20576F726C64004C4544206F66A6
:1001200066004C4544206F6E007700756172743034
:10013000000A000A23446562756720000A23496E9D
:10014000666F2020000A234E6F74696320000A2323
:100150005761726E2020000A234572722020200011
:100160000A23437269742020000A23416C6572746B
:1001700020000A23456D65726720003F3F203C4404
:100180004D4B3E200057443A200056533A2000562B
:10019000453A200055543A200055443A2000554134
:1001A0003A200053523A200053503A200053473A25
:1001B000200053453A200053543A200052543A202C
:1001C0000052433A2000504C3A200050413A20005F
:1001D0004D443A20004D4D3A20004D453A20005301
:1001E000593A20004C473A20004C453A20004B42F7
:1001F0003A2000494E3A200048543A2000464C3AF2
:10020000200046413A200044503A2000434D3A2015
:100210000043483A200041553A2000308030001712
:100220000780B0173C06001750003F240006001658
:100230002012008F570000CE101229009900004DA7
:100240000080404C180600D7960028550D00004845
:100250000D0600505B0930420080B001801442401E
:10026000BC182840C71336423C003E03B8140003B4
:100270001B1500C259D66F2400003603981228D5EA
:100280005700004D000028402BF33624004C80100E
:100290003E1438103E0A78133E0DB8033E05F806AA
:1002A000009555093015141B00D4FF0300CEFF0143
:1002B000000A000024CE168AB5240092F20094525F
:1002C00061240002FE2400B24824004A4501B6F32E
:1002D0003605D8F3360D98F0360A5800200000F0A5
:1002E000361418618013362400123E17B8123E15DA
:1002F00038053E14B82536240000000A80103E035D
:10030000B8944105B8113E2400113E07B8143E12BE
:1003100078143E0DF8033E0EF8060051000028D573
:10032000240000240088B81200046405040000249E
:1003300000002858219440240000240221000024B9
:10034000009864030856FE2400B6482400D64D24C5
:1003500000103A24C0F03224C056FE2400B64824CF
:1003600000D64D24008443834496638C8800F4D5E2
:1003700040003D2480060091003F00C3FE0600536C
:10038000000131248060FE2400BE48240034A6030E
:100390000C244324008442022C060011000028D8BB
:1003A00024003124800600115000392480060011F9
:1003B0000000314C9884424C9000F488400028455D
:1003C0002800002400F03C40380930413809301042
:1003D0003800200000000088270930D01B0028804A
:1003E000280930811BF334CC1BF3360ED8F4360DBC
:1003F000D8F4361258F1360798F1360518F036035E
:100400009805341490F3362400F2361518002000B5
:1004100000F2361798AD80123E17B8123E15380517
:100420003E14B81536240000000A80103E027810F1
:100430003E04F8113E1078143E1278132980C91436
:100440003E24C0132980C988404C1800F4054000A0
:1004500000C018006424000000C01B002895303044
:100460000010030028803F0138244000642400006D
:1004700000401A002855370600D0550000037D843F
:10048000B84C1809300538093000008AFF24001DD7
:1004900029007BB248240000004118060010508A51
:1004A0004044B800290013884024000030CC1B14BD
:1004B000602400300051030028D5360000240006D7
:1004C00000110000312400300051030038240000E6
:1004D00028803F01392440006424003000D003000C
:1004E00028553F0000037D0600D05584B84C1809FC
:1004F000300538093000008AFF24001D29007BB236
:100500004824008A40CC9B000041180028553B0637
:100510000010509A68240000302400146024003039
:100520000092030028853E0600910006001100009D
:100530000052180600530080B80024060091000401
:1005400038248030009203003B240001392440000D
:1005500028803F013A24400138244080B8D31BF45E
:10056000361258F1361058F03604D8F036025805D5
:10057000341490F3362400F236151800200000F2EF
:1005800036179830000000000045786974000000BC
:100590000053EF6E000000004578697453EF6E4D14
:1005A000EA6D540000000007060606060606060669
:1005B00006060606060606060606060606060606DB
:1005C00006060606060606060606060606060606CB
:1005D00006060606060606060606060606060606BB
:1005E00007060606060606060606060606060606AA
:1005F000060606060606060606060606060606069B
:100600000606060606060606060606070606060689
:10061000060606060606060606060606060606067A
:10062000060606060606060606060606060606066A
:10063000060606060606060606060606060606065A
:10064000060606060606060606060606060606064A
:10065000060606060606060606060606060606063A
:10066000060606060606060606060606060606062A
:10067000060606060606060606060606060606061A
:10068000060606060606060606060606060606060A
:1006900006060606060606060606060606060606FA
:1006A00006060606070606060606060606060606E9
:1006B00006060606060606060606060606060606DA
:1006C00006060606060606060606060606060606CA
:1006D00006060606060606060606060606060606BA
:1006E00006060606060606060606060606060606AA
:1006F000060606060606060606060606060606069A
:100700000606060606060606060606060606060689
:100710000606060606060606060606060606060679
:100720000606060606060606060606060606060669
:100730000606060606060606060606060606060659
:100740000606060606060606060606060606060649
:1007500006060606060606060606060654687265BE
:100760006164206661696C65640043617264507203
:10077000657300436172642072656D6F7665640015
:100780004361726420696E736572746564004572BA
:10079000726F7220696E697469616C6973696E67E2
:1007A0002046696C652073797374656D20616E6491
:1007B00020436172642D64726976657200436172D0
:1007C00064206D6F756E74656400696E76616C6926
:1007D00064205370656564006572726F7220647581
:1007E00072696E67204353442072656164000000A3
:1007F00000000000000000000000000000000000F9
:1008000000000000000000000000000000000000E8
:1008100000000000000000000000000000000000D8
:1008200000000000000000000000000000000000C8
:1008300000000000000000000000000000000000B8
:1008400000000000000000000000000000000000A8
:100850000000000000000000000000000000000098
:100860000000000000000000000000000000000088
:100870000000000000000000000000000000000078
:100880000000000000000000000000000000000068
:100890000000000000000000000000000000000058
:1008A0000000000000000000000000000000000048
:1008B0000000000000000000000000000000000038
:1008C0000000000000000000000000000000000028
:1008D0000000000000000000000000000000000018
:1008E0000000000000000000000000000000000008
:1008F00000000000000084E880937400479A3F9A4B
:10090000469A3E9A81EE809300C380E4809301C3AF
:1009100085B78F7785BF80E090E0359B05C0019655
:1009200041F0359BF8CFFBCF019619F03599F3CF05
:10093000FBCF85B7806885BF47983F9846983E981B
:1009400087E08093C4008093CC0011241FBECFEFBA
:10095000D1E2DEBFCDBF13E0A0E0B2E0EEE9FFE8F8
:1009600000E00BBF02C007900D92A63AB107D9F77D
:1009700017E0A6EAB3E001C01D92A033B107E1F78A
:100980008FEF9FE79EBF8DBF8FEF9FE7805397400C
:100990008158914040F06FEF7EE76053774080E3ED
:1009A00097E00E9445260E94082F892B41F06FEDA9
:1009B00072E086E197E00E942C470E94EF2E20E82B
:1009C00031E040E050E06CE375E288EE92E00E9496
:1009D00037300E9400000C94CE470C94000087EF43
:1009E00084B98CE08AB98BB18C70836F8BB98EE837
:1009F0008DB98EB18E7881608EB985B7806885BFDC
:100A000085B7806885BF8EE080BB81B38E70816FB3
:100A100081BB88E183BB08951F93CF93DF93CDB74C
:100A2000DEB762970FB6F894DEBF0FBECDBF0E944F
:100A3000D30D84E60E94332A0E94EF040E94750FB2
:100A40000E94D7080E94C4090E9486060E943A06A6
:100A50000E94B1088EE091E09F938F9316EC1F9354
:100A60000E9471070E94590E0E94FD20CE0101963E
:100A70000E9419210F900F900F90892BD9F4898132
:100A80009A819F938F938B819C819F938F938D816C
:100A90009E819F938F9384EF90E09F938F931F93FA
:100AA0000E9471078DB79EB709960FB6F8949EBF46
:100AB0000FBE8DBF0E94D11E20E032E040E050E02A
:100AC00067EE75E080E092E00E94373020E032E08F
:100AD00040E050E062ED75E089E092E00E9437303E
:100AE00020E032E040E050E060EA75E083E192E02F
:100AF0000E9437300E94650D0E94370940E050E0A7
:100B00006BE975E08FEF92E00E94322F892B49F458
:100B100085B5846085BDA89A80916E0081608093C0
:100B20006E00789464E670E080E090E00E94452BCF
:100B30000E94D10DF7CF0E94DF080E94000E089599
:100B40006AE070E080E090E00E94452B10E0EE2427
:100B5000FF24C1E0D0E00EC06AE070E080E090E0E9
:100B60000E94452BCE016FE070E00E9472472196F3
:100B7000892B91F70E946C098F5F9F4F31F081E0C4
:100B80000E9480097E0111E0E7CF112329F3CE01F5
:100B90008E199F098B3F9105FCF280E00E9480092D
:100BA00010E0DACF80E00E94B7088AE191E09F93DD
:100BB0008F9386EC8F930E94710768EE73E080E05C
:100BC00090E00E94452B0F900F900F90EBCF81E0AB
:100BD0000E94B70882E291E09F938F9386EC8F93F7
:100BE0000E94710768EE73E080E090E00E94452B60
:100BF00080E092E09F938F930E9442420F900F906B
:100C00000F900F900F90E3CF8091A6039091A703D0
:100C100008958091A6039091A703009731F00E9458
:100C2000ED401092A7031092A6030895CF93DF938F
:100C3000CDB7DEB724970FB6F894DEBF0FBECDBF99
:100C400069837A838B839C838091A6039091A70309
:100C50000E943E41AE014F5F5F4F63E171E00E9431
:100C6000834024960FB6F894DEBF0FBECDBFDF9150
:100C7000CF910895EF92FF920F931F93CF93DF933D
:100C8000CDB7DEB72D970FB6F894DEBF0FBECDBF40
:100C900080E092ECA1E0B0E08C839D83AE83BF83C3
:100CA00088E0E82EF12CEC0EFD1E6BE271E0C7012E
:100CB0000E94DE4669E271E08E010F5F1F4FC8019E
:100CC0000E94DE4640914E0350914F03B801C70188
:100CD0000E949E419093A7038093A603009749F03A
:100CE0000E943E41AE014C5F5F4F61E071E00E94A7
:100CF00083402D960FB6F894DEBF0FBECDBFDF91B7
:100D0000CF911F910F91FF90EF9008951092A7033C
:100D10001092A60340E060E070E08BE093E00E9458
:100D2000C32E08959091A803883010F48093A803EF
:100D3000892F992708952F923F924F925F926F9239
:100D40007F928F929F92AF92BF92CF92DF92EF925B
:100D5000FF920F931F93CF93DF93CDB7DEB7CD54A0
:100D6000D0400FB6F894DEBF0FBECDBF7C016B0143
:100D70001A01892B09F48EC094E0692E712C442449
:100D80005524AA24BB24A0E0B0E000E010E07EC01F
:100D9000C5018F709070892B69F54DE450E060E2D9
:100DA00070E08E010F5F1F4FC8010E941147930131
:100DB000220F331F220F331F2450304040E050E0F9
:100DC000D801F201022E02C0F695E7950A94E2F7E7
:100DD000EF70F070E55EFD4F80818D934F5F5F4F48
:100DE000245030404615570561F7D3011296830110
:100DF0000C5C1F4FF6019081E92FE295EF70FF2701
:100E0000E55EFD4F50814D010894811C911CE92F36
:100E1000FF27EF70F070E55EFD4F4081892F805213
:100E20008F3510F08EE201C0892F9E012F5F3F4F5A
:100E3000A20FB31F5C93F901E80DF91D4083F9017E
:100E4000E00FF11F80830F5F1F4F0894A11CB11C9E
:100E5000C5018F709070892B19F0A214B30489F426
:100E6000F901E00FF11F1082B701C9010E94314260
:100E7000B7018AE090E00E94094280E190E0480ECC
:100E8000591E0894C11CD11CD4011296A214B3049B
:100E900009F07ECFC35BDF4F0FB6F894DEBF0FBE05
:100EA000CDBFDF91CF911F910F91FF90EF90DF9019
:100EB000CF90BF90AF909F908F907F906F905F90FA
:100EC0004F903F902F9008956091A9037091AA03CD
:100ED0006115710529F0992787FD90950E940942B7
:100EE00008951F93CF93DF93CDB7DEB722970FB648
:100EF000F894DEBF0FBECDBF19856091A903709134
:100F0000AA036115710509F410C1212F3327277039
:100F100030708091A8039927821793070CF405C1BC
:100F2000812F87708330F1F0843028F48130A1F074
:100F30008230A8F40EC08530D9F08530B0F086300C
:100F4000D1F0873019F483E391E017C081E391E099
:100F500014C082E791E011C089E691E00EC080E6FE
:100F600091E00BC087E591E008C08EE491E005C0F8
:100F700085E491E002C08CE391E00E946D426091B3
:100F8000A9037091AA03212F287F283709F4AAC04A
:100F9000293790F5283309F499C02933B0F4283162
:100FA00009F48EC0293138F4283009F486C0203184
:100FB00009F053C055C0283209F485C0203309F424
:100FC00055C0203209F049C04EC0283509F484C00C
:100FD000293548F4283409F47CC0203509F44CC084
:100FE0002034D9F546C0283609F479C0203709F4F1
:100FF00049C0203691F543C0283B09F47FC0293B06
:10100000A8F4283909F474C0293940F4283809F4BF
:101010006CC02039E9F1203801F537C0283A09F4CD
:101020006AC0203BD9F1203AC1F435C0283D09F40B
:101030006BC0293D40F4283C09F463C0203DA1F178
:10104000203C59F42EC0283E29F0203F99F1203E43
:1010500021F42DC085E891E059C08BE791E056C09E
:1010600086E192E053C081E192E050C08CE092E0D2
:101070004DC087E092E04AC082E092E047C08DEF29
:1010800091E044C088EF91E041C083EF91E03EC021
:101090008EEE91E03BC089EE91E038C084EE91E0A5
:1010A00035C08FED91E032C08AED91E02FC085ED23
:1010B00091E02CC080ED91E029C08BEC91E026C03E
:1010C00086EC91E023C081EC91E020C08CEB91E0B4
:1010D0001DC087EB91E01AC082EB91E017C08DEA4A
:1010E00091E014C088EA91E011C083EA91E00EC05B
:1010F0008EE991E00BC089E991E008C084E991E0B4
:1011000005C08FE891E002C08AE891E00E946D423C
:10111000AE01445F5F4F5A8349836A857B85809126
:10112000A9039091AA030E94814222960FB6F894D7
:10113000DEBF0FBECDBFDF91CF911F91089580918B
:10114000A9039091AA031092AA031092A9030E94E6
:101150002D4108950E9404069093AA038093A90349
:10116000089587E08093A8030E94AA080895833019
:1011700059F0843018F4882339F008C0853031F0F4
:10118000853040F0863091F48B9801C08B9A809323
:10119000AB0308958091AB03813021F48B981092BA
:1011A000AB0308958B9A81E08093AB0308958B98ED
:1011B0001092AB0308958091AB0399270895A398EB
:1011C000000000004FB1A39AA498000000006FB186
:1011D000A49A5B98000000008FB15B9A5A980000B7
:1011E00000002FB15A9A42954F705527607F77279C
:1011F000462B572B807F992734E0880F991F3A950B
:10120000E1F7482B592B207F3327322F2227422BFF
:10121000532B5093AF034093AE030895E82F862FCE
:101220008150823030F4E03120F4FF27EC54FC4F41
:10123000608308958091B003992708958093B00347
:10124000E091AC03F091AD03309739F48FEF9FEF4D
:101250009093AD038093AC0308958FEFEF3FF807B1
:1012600029F0848195810196958384830895A39ABA
:10127000A49A5B9A5A9A1092B3038FEF9FEF9093C0
:10128000AF038093AE030FB6F8940F921092AD03A4
:101290001092AC030F900FBE8FEF8093B003E4EB7E
:1012A000F3E082E0819393E0E43CF907D9F71092F0
:1012B000B2031092B10361E088E00E940E0961E080
:1012C0008BE00E940E0961E08AE00E940E0961E055
:1012D0008CE00E940E0908958091AE039091AF03B7
:1012E0000895AB01BC018CEA93E00E942D2E20E012
:1012F00030E08F5F9F4F11F421E030E0C901089585
:10130000813011F4739A0895882309F4739808952D
:101310009AB19F70906F9AB99BB19F70607F962B26
:101320009BB9823011F48A9801C08A9A729A00009F
:10133000000072988A988AB18F708AB98BB18F70C9
:10134000806F8BB908950F931F93082F162F8A98DB
:10135000899A729A000000004F99FBCF72988A9880
:101360008998612F607F802F0E9488091295107FD5
:10137000612F802F0E9488091F910F910895682F77
:1013800083E00E94A30908951F938CE80E94332AEA
:1013900010E063E382E00E94880984E00E94332A1F
:1013A0001F5F1330B1F762E282E00E94880981E09A
:1013B0000E94332A68E282E00E94A30985E00E942D
:1013C000332A6CE082E00E94A30985E00E94332A60
:1013D00061E082E00E94A30985E00E94332A66E072
:1013E00082E00E94A30960E882E00E94A3091F91A5
:1013F00008950FB6F8940F929DB3882311F0EE9ADA
:1014000001C0EE980F900FBE892F992726E0969580
:1014100087952A95E1F781709070089580E00E9489
:10142000F909982F8091C403813011F41092C403FC
:10143000892F0E94F90980E090E008958091C4030B
:10144000992708958091C5039091C60308958091CE
:10145000C5039091C60308950F931F93CF93DF9315
:10146000EC018B0180E090E00E94790F05C0FE0145
:1014700084910E94610F219601501040FFEF0F3FB1
:101480001F07A9F70E94560FDF91CF911F910F916F
:1014900008951F9380E00E94F909182F64E070E01E
:1014A00089E895E00E942C0A64E070E085E895E008
:1014B0000E942C0A812F0E94F90980E090E01F9180
:1014C00008950F931F93CF93DF938C01EB0180E07E
:1014D00090E00E94790F05C0F80181918F010E9470
:1014E000610F2197FFEFCF3FDF07B1F70E94560F43
:1014F000DF91CF911F910F910895EF92FF920F937B
:101500001F93F82E8B010E945D0FE82E80E00E9451
:101510005A0F80E090E00E94790F2C9882E00E94A0
:10152000610F8F2D0E94610F812F99270E94610FFB
:10153000802F0E94610F2C9A0E94560F8E2D0E94C0
:101540005A0F1F910F91FF90EF900895DF92EF9245
:10155000FF920F931F93082FE62E80E00E94F90957
:10156000D82E1127102F0027FF240E291F29B8017C
:101570008BE00E947D0A8D2D0E94F90980E090E0A9
:101580001F910F91FF90EF90DF900895FF920F93BE
:101590001F938C0180E00E94F909F82E1C60B801AD
:1015A00080E00E947D0A8F2D0E94F90980E090E082
:1015B0001F910F91FF9008951F93CF93DF93CDB7A5
:1015C000DEB721970FB6F894DEBF0FBECDBF89837B
:1015D00080E00E94F909182F80E290E00E94C60A7C
:1015E00063E070E081E995E00E942C0A61E070E020
:1015F000CE0101960E94610A64E070E08DE895E0FA
:101600000E942C0A812F0E94F90980E090E0219627
:101610000FB6F894DEBF0FBECDBFDF91CF911F9103
:101620000895282F332727703070C90153E0880FA1
:10163000991F5A95E1F7820F931F885C0E94DC0A7C
:101640000895DF92EF92FF920F931F93CF93DF9352
:10165000CDB7DEB721970FB6F894DEBF0FBECDBF72
:1016600089837B0180E00E94F909D82E80E290E016
:101670000E94C60A89818295807F885C898363E0A5
:1016800070E08CE995E00E942C0A61E070E0CE01E8
:1016900001960E94610A04E915E064E070E0C80167
:1016A0000E942C0A8E2D0E94332A64E070E088E9A3
:1016B00095E00E942C0A64E070E0C8010E942C0AA8
:1016C0008D2D0E94F90980E090E021960FB6F894E4
:1016D000DEBF0FBECDBFDF91CF911F910F91FF9065
:1016E000EF90DF9008950F931F938C0180E00E948C
:1016F000F9091092C403C80184600E94C60A8AE0F6
:101700000E94332A80E48CBB80E090E01F910F910F
:101710000895DF92EF92FF920F931F93182F0E946C
:101720005D0FD82E80E00E945A0F80E090E00E946A
:10173000790F2C9883E00E94610F812F0E94610F26
:101740000E94660FE82EFF24FE2CEE240E94660FF6
:10175000082F2C9A0E94560F8D2D0E945A0F112788
:10176000C701802B912B1F910F91FF90EF90DF907D
:101770000895FF920F931F9380E00E94F909F82EBD
:101780008BE00E94890B8C018F2D0E94F909C80102
:101790001F910F91FF900895FF920F931F93182FA1
:1017A00080E00E94F909F82E812F0E94890B8C019C
:1017B0008F2D0E94F909C8011F910F91FF90089584
:1017C00089E00E94CC0B9C018FEF213E380790F5F9
:1017D0008DE424353807A1F18DE42535380768F408
:1017E00081E424353807F9F08DE424333807D9F043
:1017F00081E42434380709F516C087E52D3638070B
:10180000F9F087E52E36380728F487E52D343807B8
:10181000A1F409C086E72536380729F08FEF203E6E
:10182000380759F40DC08091C5039091C603039702
:1018300039F403C020EE3FEF03C080E090E008954C
:10184000C901089580E00E94F9092F982C9A2898E0
:10185000209A84E00E94332A80E00E945A0F10925E
:10186000C4032F9A84E00E94332A81E00E94890BEE
:1018700074E0969587957A95E1F7877090709093CC
:10188000C6038093C503039719F460E070EE02C0AD
:1018900060E078E983E00E947D0A82E30E94332AB7
:1018A00080E090E00E94C60A60E080E00E94A60A04
:1018B00082E30E94332A8091C5039091C603039767
:1018C000029710F482E001C081E00E945A0F40E0CC
:1018D00050E06AE77CE089EF92E00E94322F66E0F8
:1018E00070E089EF92E00E94B02F80E48CBB80E032
:1018F00090E00895BF92CF92DF92EF92FF920F9304
:101900001F93CF93DF93CDB7DEB722970FB6F8942E
:10191000DEBF0FBECDBF8091C403813009F04FC040
:10192000669B4DC080E00E94F909B82E78941A8217
:10193000198280E090E00E94790FF0E2EF2EF12C06
:1019400000E010E0CC24DD2403C0EFE1EE2EF12C0A
:1019500089819A81C816D906C0F0C114D10419F042
:10196000C6010E944D27CE0101960E94CC268C0113
:1019700089819A81892B19F0CC24DD2408C082E06A
:101980008093C403CC24DD2412C0892B41F0F801DC
:1019900081918F010E94610F0894C11CD11C66992E
:1019A000D4CF0894E108F108E114F10489F60E940B
:1019B000560FC6010E94EA278B2D0E94F909229634
:1019C0000FB6F894DEBF0FBECDBFDF91CF911F9150
:1019D0000F91FF90EF90DF90CF90BF9008950F93FD
:1019E0001F93CF93DF938091C403813009F435C0F6
:1019F00080E00E94F909CBE1D2E0FE01659174918B
:101A0000E7EAF5E0E4918E2F0E947D0A00E010E005
:101A100011C0FE0165917491F801E955FA4FE49106
:101A20008E2F0E947D0AC80164EF71E00E94724708
:101A3000892B11F40E94D10D0F5F1F4F229681E078
:101A4000053B180731F781E08093C40380E090E004
:101A50000E947A0C81E00E94F90980E090E0DF9119
:101A6000CF911F910F9108951F93CF93DF9380E043
:101A700090E00E94730B80E290E00E94C60A80E032
:101A80000E94F909182F68E070E08FE995E00E9444
:101A90002C0A88E20E94332A88E00E94890BEC011C
:101AA000812F0E94F9098091C5039091C603039785
:101AB00031F480E8CF37D80711F4C0E0D0E0CE0190
:101AC000DF91CF911F910895089580916A008C7FD6
:101AD00080936A0040E050E064E67DE083EF92E0AE
:101AE0000E94322F892B31F480916A0082608093AA
:101AF0006A00EC9A80918100836080938100AD9AA6
:101B00000FB6F8940F921092C8031092C7030F906B
:101B10000FBE0895EF92FF920F931F93AB01BC018C
:101B2000A89521E0E12CE8E0FE2E012D112D01C049
:101B30002F5FD801C701022E04C0880F991FAA1F6A
:101B4000BB1F0A94D2F737E0B695A795979587956E
:101B50003A95D1F784179507A607B70748F320935E
:101B6000CA032A3018F029702093CA032091CA03AF
:101B700023FF02C038E201C038E088E190E027701E
:101B8000322B0FB6F894A895809360000FBE309367
:101B9000600081E08093C9031F910F91FF90EF9047
:101BA0000895A89508958091C903882319F08F5F3F
:101BB0008093C90388E10FB6F89480936000109277
:101BC00060000FBE08958091C9038230C0F081503B
:101BD0008093C903813099F42091CA0323FF02C086
:101BE00038E201C038E088E190E02770322B0FB670
:101BF000F894A895809360000FBE3093600008951C
:101C00008091CE039091CF038130910589F081308E
:101C1000910530F08230910521F10397E9F52DC04F
:101C200078993AC081E08093CD0381E090E020C0B4
:101C3000789912C08091CD038F5F8093CD038E3150
:101C400059F581E08093CC0382E090E09093CF033C
:101C50008093CE0381E021C01092CF031092CE0377
:101C60001BC0789B19C081E08093CD0383E090E096
:101C70009093CF038093CE030FC08091CD038F5FED
:101C80008093CD03843141F41092CC031092CF03A2
:101C90001092CE0380E001C082E0992708958091E0
:101CA000CC03992708958091D0039091D103089592
:101CB00008950F931F93CF93DF93CDB7DEB72A9785
:101CC0000FB6F894DEBF0FBECDBF1092CF031092B7
:101CD000CE031092CC036AE677E08E010F5F1F4FB0
:101CE000C8010E94DE46C8010E941529892BB1F463
:101CF00020E033E040E050E06AE17FE0C8010E946C
:101D00003730892B59F48CE597E09F938F9380EEC1
:101D10008F930E9471070F900F900F902A960FB625
:101D2000F894DEBF0FBECDBFDF91CF911F910F9111
:101D30000895FF920F931F93CF93DF93CDB7DEB734
:101D40002A970FB6F894DEBF0FBECDBF8DE292E0AA
:101D50000E94A72E892BB9F480E00E94F909F82E81
:101D600040E067E070E08BE292E00E94C32E8C01BD
:101D7000892B51F540E067E070E08EE492E00E942C
:101D8000C32E8C0121C00E943B1380E00E94F90900
:101D9000F82EE0913E02F0913F02309729F08BE25D
:101DA00092E01995892B59F4E0916102F091620259
:101DB000309741F08EE492E01995892B19F00FEFDE
:101DC0001FEF02C000E010E08F2D0E94F9090115FD
:101DD0001105C1F48DEB97E09F938F9386EE8F935F
:101DE0000E94710760E070E0CE0101960E9495406C
:101DF0000F900F900F902FEF8F3F920771F00E947E
:101E00006D400BC08EE897E09F938F9383EE8F9386
:101E10000E9471070F900F900F90C8012A960FB67D
:101E2000F894DEBF0FBECDBFDF91CF911F910F9110
:101E3000FF9008958091CC038093CB038091CC03D5
:101E40008130B9F48091CB03882349F580E897E08D
:101E50009F938F9386EE8F930E9471070E94990E35
:101E60000F900F900F90892B29F780E10E941E0997
:101E7000E1CF8823A1F48091CB03813081F483E703
:101E800097E09F938F9386EE8F930E9471078091C6
:101E9000CC038093CB030F900F900F90CFCF64EFC4
:101EA00071E080E090E00E94452BC8CF779A2E9891
:101EB0002D9A08958093D20308958091D203992793
:101EC00008958EBD0DB407FEFDCF08958FEF8EBD32
:101ED0000DB407FEFDCF8EB5992708958EBD0DB4C4
:101EE00007FEFDCF8EB599270895779A2E982D9AE3
:101EF00008959C010097F9F48091D203882321F47E
:101F000081E08DBD81E504C0813021F41DBC80E5F8
:101F10008CBD25C0823019F481E08DBDF8CF8AECEC
:101F200097E09F938F938BE78F930E9471070F9099
:101F30000F900F9014C0019741F481E08DBD80E5B2
:101F40008CBD2D9A2E98779808951DBC80E58CBD88
:101F50002130310520F02230310541F404C0779A58
:101F60002D9A2E9A0895779A2E982D98089580E0AC
:101F700090E0089580E090E0089580E090E008957A
:101F800040E050E060E070E083ED93E00E942D2E91
:101F90000895CF93DF93CEEFDFEF0E94660F8F3F60
:101FA00011F42197D1F79927DF91CF910895CF931D
:101FB000DF93CEEFDFEF0E94660F8E3F11F0219787
:101FC000D1F79927DF91CF910895DF92EF92FF9299
:101FD0000F931F93D82E8B017A0182E090E00E942C
:101FE000790F8FEF0E94610F8D2D80640E94610F29
:101FF000812F99270E94610F802F0E94610F8F2DE2
:1020000099270E94610F8E2D0E94610F85E90E9421
:10201000610F8FEF0E94610F1F910F91FF90EF9062
:10202000DF9008956F927F928F929F92AF92BF92AE
:10203000CF92DF92EF92FF920F931F93CF93DF9394
:102040005B0169017A013801882499243AC0A6010C
:10205000542F4427550FC701B60127E09695879561
:10206000779567952A95D1F781E10E94E50F0E9447
:10207000D70F8E3F29F00E94560F81E090E026C0D6
:102080008501C0E0D0E00E94660FF80181938F01C6
:102090002196F2E0C030DF07B1F780E092E0A80EB1
:1020A000B91E8FEF0E94610F8FEF0E94610F0E9497
:1020B000560F0894811C911C0894C11CD11CE11C72
:1020C000F11C8614970419F680E090E0DF91CF911F
:1020D0001F910F91FF90EF90DF90CF90BF90AF9046
:1020E0009F908F907F906F90089583ED93E00E9472
:1020F000DA2D08952F923F924F925F926F927F92C6
:102100008F929F92AF92BF92CF92DF92EF92FF9207
:102110000F931F93CF93DF93CDB7DEB728970FB6FA
:10212000F894DEBF0FBECDBFF82E6B0139014A0116
:1021300018010E94C00FFF2019F022E030E0A8C073
:10214000C801AA27BB27860D971DA81DB91D209180
:10215000D8033091D9034091DA035091DB0328175B
:1021600039074A075B0728F483E090E09E838D835C
:1021700002C01E821D828091D5039091D60397FDE7
:1021800004C0E2E0F0E0FE83ED8396FD7FC02D8188
:102190003E81232B09F092C0DC82CB8272C03FEFDC
:1021A0002316310409F010F4610103C0C12CA1E031
:1021B000DA2E4B805C80840173011A82198253C02D
:1021C000A701542F4427550FC801B701E7E09695A2
:1021D000879577956795EA95D1F788E10E94E50F95
:1021E0000E94C90F8F3F09F445C08EEF0E94610F16
:1021F000520118861F82F50181915F010E94610FD3
:102200002F8138852F5F3F4F38872F8320503240F2
:1022100091F7E0E0F2E04E0E5F1E8FEF0E94610F3B
:102220008FEF0E94610F8FEF0E94610F5FEFA52E6D
:10223000B52E0E94660F882339F40894A108B108CE
:10224000A114B104B9F0F5CF0894E11CF11C011DF3
:10225000111DAB2879F00E94560F29813A812F5F1A
:102260003F4F3A83298389819A818C159D0509F016
:10227000A7CF11C00E94560FE1E0F0E0FE83ED838E
:102280001DC02114310409F08ACF18C028E030E0C5
:102290003E832D8313C0C601AA27BB27680E791E73
:1022A0008A1E9B1E2C183D08DC2CCC24DD0C8B8157
:1022B0009C818C0D9D1D9C838B83E3CF0E947510A8
:1022C0008D819E8128960FB6F894DEBF0FBECDBFDC
:1022D000DF91CF911F910F91FF90EF90DF90CF9002
:1022E000BF90AF909F908F907F906F905F904F9036
:1022F0003F902F9008958F929F92AF92BF92CF926E
:10230000DF92EF92FF920F931F93CF93DF93F82EFC
:10231000EB0149015A0168010E94C00FFF20F1F44E
:102320008091D5039091D60397FF18C0C801AA27C2
:10233000BB27880D991DAA1DBB1D2091D803309184
:10234000D9034091DA035091DB03281739074A0774
:102350005B0708F042C003E010E044C002E010E078
:1023600041C02FEFC216D10409F010F4E60102C0FB
:10237000C0E0D1E08E01A5019401B70185ED93E0A5
:102380000E9412108C01892B69F5CE01AA27BB2768
:10239000880E991EAA1EBB1ECC1ADD0A8091DC0392
:1023A0009091DD039C01C29FC001C39F900DD29FFD
:1023B000900D1124E80EF91EC114D10491F600E02D
:1023C00010E010C001E010E0A5019401BE0185ED10
:1023D00093E00E9412108C0105C07E0101301105AE
:1023E00059F7F0CF0E947510C801DF91CF911F916E
:1023F0000F91FF90EF90DF90CF90BF90AF909F90A4
:102400008F900895EF92FF920F931F93182F0E94C1
:10241000C00F112321F0EE24FF24870108C0E090B3
:10242000D803F090D9030091DA031091DB030E94E6
:102430007510C801B7011F910F91FF90EF9008959B
:102440001F93CF93DF93182F0E94C00F112319F011
:10245000C0E0D0E004C0C091DC03D091DD030E9455
:102460007510CE01DF91CF911F910895CF92DF9229
:10247000EF92FF920F931F93CF93DF93CDB7DEB709
:1024800060970FB6F894DEBF0FBECDBF6B010E9400
:10249000C00F8091D5039091D60397FF8AC040E08A
:1024A00050E060E070E089E00E94E50F0E94D70FE5
:1024B0008E3F61F088ED97E09F938F9383EF8F932A
:1024C0000E9471070F900F900F9073C08E010F5FE5
:1024D0001F4F0E94660FF80181938F01CE01419634
:1024E000E817F907B1F78FEF0E94610F8FEF0E9495
:1024F000610F0E94560FEE80FFE0EF2221E030E0F6
:10250000C90102C0880F991FEA94E2F77C016F812C
:10251000772763707070762F6627770F770FE885BF
:10252000FF27EE0FFF1FEE0FFF1F6E2B7F2B09857E
:102530001127EA85FF27E370F070DF01AA0FBB1FA8
:10254000EA2BFB2BAB85BB2786E0169507958A9572
:10255000E1F7602B712B6F5F7F4F88279927AA0FB8
:10256000AB2FAA1FBB0BB195EA2BFB2B329602C0F7
:10257000220F331FEA95E2F7442755270E9433477D
:102580006093D8037093D9038093DA039093DB03AD
:10259000F092DD03E092DC030E94751001E010E090
:1025A00020E030E040E050E0B60180E00E947B1186
:1025B00004C00E94751081E090E060960FB6F89418
:1025C000DEBF0FBECDBFDF91CF911F910F91FF9066
:1025D000EF90DF90CF900895CF93DF937093DF0358
:1025E0006093DE035093E1034093E00389E0E5ED5F
:1025F000F3E011928A95E9F71092D70383ED93E007
:102600000E94DA2DC0E0D0E08FEF0E94610F21968A
:10261000CA30D105C9F740E050E060E070E080E0EA
:102620000E94E50F0E94C90F813099F4CFEFDFEFD0
:1026300007C040E050E060E070E081E00E94E50FFC
:102640000E94660F882319F0219799F702C0CD2BBD
:1026500029F40E94560F81E090E00AC00E94560FB4
:1026600080E090E89093D6038093D50380E090E0DB
:10267000DF91CF9108951092E3031092E203089541
:10268000EF92FF920F931F93CF93DF93EC017A01A8
:102690008B018B8180FD1AC08EEF9FEFAFEFBFEFF4
:1026A000E80EF91E0A1F1B1F2A81332744275527CE
:1026B000C801B7010E943347AB01BC018A8D9B8DD5
:1026C000AC8DBD8D480F591F6A1F7B1FCB01BA010E
:1026D000DF91CF911F910F91FF90EF9008958FEFB1
:1026E0009FEF08958FEF9FEF0895282F8F3F11F4EC
:1026F00020E006C0882321F099270E94A747282FB1
:10270000822F992787FD909508958F929F92AF927F
:10271000BF92CF92DF92EF92FF920F931F93FC0133
:102720006A017B01838180FF07C0CB01BA016F5F23
:102730007F4F8F4F9F4F69C0808182889388A48884
:10274000B5886091E6037091E7038130A9F5A70190
:102750009601A7E05695479537952795AA95D1F705
:10276000280D391D4A1D5B1D01E010E081810E948A
:102770007B118091E6039091E703F601EF77F0700B
:10278000EE0FFF1FEE0FFF1FE80FF91F6081718131
:10279000828193819F706F3F2FEF72072FEF820727
:1027A0002FE0920771F1673F2FEF72072FEF82073B
:1027B0002FE0920751F525C055274F2D3E2D2D2D89
:1027C000280D391D4A1D5B1D01E010E081810E942A
:1027D0007B118091E6039091E703F601F070EE0F14
:1027E000FF1FE80FF91F208131818FEF2F3F38073E
:1027F00041F08FEF273F380721F0B901882799274B
:1028000004C060E070E080E090E01F910F91FF90C5
:10281000EF90DF90CF90BF90AF909F908F900895F2
:102820002F923F924F925F926F927F928F929F92E0
:10283000AF92BF92CF92DF92EF92FF920F931F93CE
:10284000CF93DF93CDB7DEB76A970FB6F894DEBFAC
:102850000FBECDBF988B8F877A8B698B5C8B4B8B30
:1028600018012901FE8AED8AD88ECF8AD7011D92E0
:102870001D921D921C921397DA010D900020E9F72A
:102880001197A41BB50BCD010C966DE070E00E9472
:102890007247F62FF064F983F53E09F496C18DE096
:1028A000689F900111243B832A832F3331050CF05C
:1028B0008CC17901BF2E1E86CC24DD2480C1B201DB
:1028C000A1018F8598890E944013688779878A873C
:1028D0009B87EF85F8898281282F33273D872C87B6
:1028E00031E0231631044104510479F480818823B6
:1028F00061F482859385A485B58588879987AA87A1
:10290000BB87268137813D872C87688479848A84B8
:102910009B8442C16091E6037091E70301E010E0FF
:10292000A4019301EF85F88981810E947B11209198
:10293000E6033091E7033F832E838091E803909173
:10294000E9039D838C833A8F298F9E85913019F4FA
:10295000E98DFA8D1DC02F89388D232B99F5A98D0E
:10296000BA8D8C91853E71F1882361F14BE050E086
:1029700069897A89CD010E94FB46892B19F5E9897D
:10298000FA899385E98DFA8D838589238917D1F496
:1029900084899589AA27BB27AC0133272227828DFA
:1029A000938DAA27BB27282B392B4A2B5B2B848D91
:1029B000958DA68DB78DED89FE8980839183A28345
:1029C000B38307C1E98DFA8D83858F3009F0D0C0BC
:1029D000A080AB1409F0CCC0B6FE0DC0BFEBAB2E8F
:1029E000AB20AC81BD81AE0DBF1D1C920894E108E7
:1029F000F108CC80DD80E98DFA8D868D978D0E945F
:102A00007513F601EE0DFF1D808387010150104004
:102A1000E98DFA8D848D958D0E947513F601E00F76
:102A2000F11F808301501040E98DFA8D808D918DCA
:102A30000E947513F601E00FF11F808301501040D2
:102A4000E98DFA8D868997890E947513F601E00F4A
:102A5000F11F808301501040E98DFA8D848995899A
:102A60000E947513F601E00FF11F808301501040A2
:102A7000E98DFA8D828993890E947513F601E00F22
:102A8000F11F808301501040E98DFA8D8089918972
:102A90000E947513F601E00FF11F80830150104072
:102AA000E98DFA8D868597850E947513F601E00FF2
:102AB000F11F808301501040E98DFA8D8185928548
:102AC0000E947513F601E00FF11F80830150104042
:102AD000E98DFA8D878190850E947513F601E00FCC
:102AE000F11F808301501040E98DFA8D8581968118
:102AF0000E947513F601E00FF11F80830150104012
:102B0000E98DFA8D838194810E947513F601E00F9F
:102B1000F11F808301501040E98DFA8D81819281EF
:102B20000E947513F601E00FF11F8083BA2CBA944E
:102B300029F078010894E108F1081AC0AB89BC8932
:102B40000D900020E9F711972B893C89A21BB30B4C
:102B5000AD01B601C9010E94FB46892B31F4EA8020
:102B6000FB80B98031E03E8703C0EA80FB80B980FA
:102B7000898D9A8D80969A8F898F8E819F818050C2
:102B80009E4FA98DBA8DA817B90709F0DECE08941B
:102B9000611C711C811C911CC301E885F9858E1B89
:102BA0009F0B2C853D85821793070CF4B3CEB201A1
:102BB000A1018F8598890E9485131B012C01211486
:102BC00031044104510409F07ACE20E030E040E0C5
:102BD00050E0CA01B9016A960FB6F894DEBF0FBE85
:102BE000CDBFDF91CF911F910F91FF90EF90DF90BC
:102BF000CF90BF90AF909F908F907F906F905F909D
:102C00004F903F902F90089580E594E00E94DA2D38
:102C1000089580E594E00E94DA2D089540E050E0A8
:102C200060E070E080E594E00E942D2E08952F92E0
:102C30003F924F925F926F927F928F929F92AF924C
:102C4000BF92CF92DF92EF92FF920F931F93CF9399
:102C5000DF93CDB7DEB728970FB6F894DEBF0FBE6F
:102C6000CDBF8C016B015E834D830E940E16011552
:102C7000110509F4F6C0F8010481158118870F8346
:102C80000115110509F4EDC06D817E816115710595
:102C900009F4E7C0F801E484F584068517852081EE
:102CA000318142815381E216F3060407150708F0CB
:102CB000D2C0CB01AA2797FDA095BA2F8E0D9F1DDC
:102CC000A01FB11F281739074A075B0720F42E19E8
:102CD0003F093E832D83EF81F885008CF18DE02D37
:102CE000FC83EB83DA82C982248035804D805E804C
:102CF000ABC0EF81F8856088718882889388510124
:102D0000CC24DD2440855185628573858B819C812F
:102D10000E9440137B018C01C401B301A6019501FF
:102D20000E948547442737FD4095542F2E0D3F1DA7
:102D3000401F511F6091E6037091E70301E010E02E
:102D4000EB81FC8181810E947B11892B09F079C084
:102D5000C401B301A60195010E9485476101421497
:102D600053040CF46201CB018C0D9D1D281639060D
:102D70001CF46101C61AD70A8091E6039091E7031B
:102D8000680F791FA60189819A810E940847760100
:102D90000027F7FC0095102FEF81F88524853585F5
:102DA000468557852E0D3F1D401F511F24873587AF
:102DB0004687578780899189A289B3898E0D9F1D87
:102DC000A01FB11F808B918BA28BB38B80819181CF
:102DD000A281B381281739074A075B0720F081E0F9
:102DE00090E0978B868BEF81F88520893189428925
:102DF0005389EB81FC81868D978DA0A1B1A1281705
:102E000039074A075B07A0F0EF81F88540855185B7
:102E1000628573858B819C810E948513EF81F88583
:102E20006087718782879387108A118A128A138A32
:102E300069817A816C0D7D1D7A8369834C185D08E8
:102E400003C08DEF9FEF09C04114510409F051CF29
:102E50000D811E8108C08EEF9FEFEF81F885958B65
:102E6000848B00E010E00E940916C80128960FB676
:102E7000F894DEBF0FBECDBFDF91CF911F910F91B0
:102E8000FF90EF90DF90CF90BF90AF909F908F908A
:102E90007F906F905F904F903F902F900895EF92AA
:102EA000FF920F931F93CF93DF93EC010E940E16B6
:102EB000209749F0EC81FD81309729F0E080F18086
:102EC0000281138108C00FEFE02E0FEFF02E0FEFFD
:102ED000002F0FEF102F0E940916C801B701DF91D4
:102EE000CF911F910F91FF90EF900895CF93DF93B3
:102EF000EC010E940E16209719F4CFEFDFEF0BC004
:102F00008C819D81009711F00E94D825CE010E94EE
:102F1000D825C0E0D0E00E940916CE01DF91CF9104
:102F200008950F931F938C010E940E16012B11F42C
:102F30001092EC030E9409161F910F9108952F9291
:102F40003F924F925F926F927F928F929F92AF9239
:102F5000BF92CF92DF92EF92FF920F931F93CF9386
:102F6000DF93CDB7DEB724970FB6F894DEBF0FBE60
:102F7000CDBF182F0E940E168091E4039091E503B7
:102F8000892B41F480E490E00E9465259093E5034D
:102F90008093E4038091E8039091E903892B41F445
:102FA00080E490E00E9465259093E9038093E80314
:102FB0008091E6039091E703892B59F480E092E039
:102FC0000E9465259093E7038093E603892B09F41B
:102FD00045C18091E4039091E503892B09F43EC13A
:102FE0008091E8039091E903892B09F437C182E2CB
:102FF000189FF0011124E651FC4F11928A95E9F7D0
:10300000E12EFF242701440C551CC70135E0880F31
:10301000991F3A95E1F7480E591E2AEE33E0420E09
:10302000531EF2011183812F0E942012F201958319
:103030008483812F0E94B70F019721F4F2018381CD
:1030400081608383812F0E94BA0F019721F4F201DE
:10305000838182608383F2018481958180509240D4
:1030600019F001E010E0FCC0F201838181FF05C08E
:1030700020E230E040E050E038C06091E60370911B
:10308000E70301E010E020E030E040E050E08E2D6A
:103090000E947B118C01892B09F0E2C0E091E603CC
:1030A000F091E703E250FE4F80819181EE5FF140A5
:1030B00085559A4A09F0D4C0E653FE4F808191812C
:1030C000A281B381EA5CF1400097A105B10509F442
:1030D000C7C0EA53FE4F20813181428153812115BF
:1030E00031054105510509F4BBC06091E6037091BB
:1030F000E70301E010E08E2D0E947B112090E60393
:103100003090E7034EEF51E0240E351ED1018D9132
:103110009C91E2E0FEEF2E0E3F1E85559A4A09F083
:103120009DC0F1018585F2018283F10126893789ED
:103130002115310571F0C901AA27BB2789839A831C
:10314000AB83BC83D2011C9281E090E0A0E0B0E0B0
:1031500010C0F10124A135A146A157A129833A83CA
:103160004B835C8381E0D2018C9384A595A5A6A5B1
:10317000B7A5F20186879787A08BB18BF101638594
:1031800074858189928925E0880F991F2A95E1F736
:10319000860F971F01970E945E473B018824992460
:1031A000E684F78400271127A48CB58CC68CD78CB5
:1031B000AE0CBF1CC01ED11EF201A28AB38AC48A03
:1031C000D58A29813A814B815C81A20EB31EC41E2F
:1031D000D51EA68AB78AC08ED18EF1016089772765
:1031E000882799270E943347F101248D358D468D1C
:1031F000578DE20EF31E041F151FE60CF71C081D69
:10320000191DE60EF71E081F191FF201E28EF38E3C
:10321000048F158FF10185859927F201248135816D
:10322000AC01429FC001439F900D529F900D11240D
:10323000AA27BB27868F978FA0A3B1A36682778228
:103240008086918629813A814B815C81A20EB31ED2
:10325000C41ED51EA286B386C486D58600E010E0C3
:103260000E940916C80124960FB6F894DEBF0FBE5F
:10327000CDBFDF91CF911F910F91FF90EF90DF9025
:10328000CF90BF90AF909F908F907F906F905F9006
:103290004F903F902F9008952F923F924F925F92C0
:1032A0006F927F928F929F92AF92BF92CF92DF9256
:1032B000EF92FF920F931F93CF93DF93CDB7DEB7BB
:1032C0002E970FB6F894DEBF0FBECDBFFC01892B41
:1032D00009F4A1C2848180330CF49DC282330CF4C2
:1032E00090C2863409F097C28CC20E940E1680915B
:1032F000EE039091EF030E9465259E878D87892BB1
:1033000009F489C23090EB03832D0E9402122B0135
:103310003C0180EE9FEFAFEFBFEF480E591E6A1ED3
:103320007B1EE1E7F2E09F012C5F3F4F808191819E
:10333000A281B38184159505A605B70538F0D9019A
:103340008C919927282E882341F00CC02B5F3F4F8A
:103350003596B2E023393B0749F78D859E850E945B
:10336000D82559C29927AA27BB2789839A83AB837B
:10337000BC83C301B20129813A814B815C810E94E7
:103380008547DA01C90102E0880F991FAA1FBB1FF8
:103390000A95D1F781509E4FAF4FBF4F19E0B695B8
:1033A000A795979587951A95D1F789879A87AB87BF
:1033B000BC874C015D01880C991CAA1CBB1C89812F
:1033C0009A81AB81BC81815A9F4FAF4FBF4F880E0E
:1033D000991EAA1EBB1E8F559040A040B040898305
:1033E0009A83AB83BC834091EE035091EF0360E07E
:1033F00070E08D859E850E941147CC24DD247601E6
:1034000010C001E010E0A70196016D857E85832D37
:103410000E947A10892B51F40894C11CD11CE11C24
:10342000F11CC814D904EA04FB0459F780E090E0C9
:103430000E94D8426D837E838F8398874091EE03EC
:103440005091EF0360E070E08D859E850E941147EA
:10345000AD85BE85A254BE4F1D9281E08D938D93A4
:103460001D928BE08D931D921C921296EFE3AE2E6F
:10347000B12CC12CD12CFD01A192B192C192D1925B
:10348000DF014082518262827382AA5CB140BE87B2
:10349000AD877EEFE72E71E0F72EEA0EFB1E65E5A5
:1034A000862E6AEA962EF7019182808201E010E072
:1034B00020E030E040E050E0BD01832D0E947A1012
:1034C0008C01892B09F005C14091EE035091EF0367
:1034D00060E070E08D859E850E9411478BEEAD8582
:1034E000BE858C9388E5FD01818380E982830DE4AC
:1034F000038393E5948384E485831FE41683978391
:1035000085E380878EE2818780E3828780E092E096
:1035100094878387258680E290E09787868782E07C
:10352000808B128A118A148A138A88EF858B178AF6
:10353000168A8FE390E0918F808F8FEF90E0938FCA
:10354000828FED85FE85A48EB58EC68ED78E40A265
:1035500051A262A273A289859A85AB85BC8584A39A
:1035600095A3A6A3B7A311A610A613A612A652E070
:10357000A52EB12CC12CD12CED85FE85A4A6B5A617
:10358000C6A6D7A681E090E091AB80AB86E090E044
:1035900093AB82ABE05CFF4F1082329689E281935D
:1035A000FE87ED876D817E818F819885A3019201D1
:1035B0000E943347AD85BE856D937D938D939D931A
:1035C0008EE48D931D9390E29D938D9321E42D9332
:1035D0000D9385E48D939D939D939D939D9386E498
:1035E0008D932D9384E58D9383E38D9382E38D9367
:1035F0009D939D939C93A955B040BE87AD87F701DD
:103600009182808201E010E02FE330E040E050E062
:10361000BD01832D0E947A108C01892B09F059C0BD
:1036200001E010E025E430E040E050E06D857E856B
:10363000832D0E947A10892B09F0E7C04091EE0398
:103640005091EF0360E070E08D859E850E941147E8
:1036500081EA9FEFAFEFBFEF480E591E6A1E7B1E37
:1036600082E592E5A1E6B1E4ED85FE858083918354
:10367000A283B383EC51FE4F82E792E7A1E4B1E667
:1036800081939193A193B193FE87ED87C301B2011A
:1036900029813A814B815C810E948547AD85BE8539
:1036A0002D933D934D935D93FD01A082B182C28223
:1036B000D382EC5EF140FE87ED87D7018D929C921C
:1036C00020E430E040E050E0BF01832D0E947A10FA
:1036D0008C010115110509F086C04091EE0350914F
:1036E000EF0360E070E08D859E850E9411472D8577
:1036F0003E8588EF9FEFAFEFBFE0F9018193919393
:10370000A193B1939F018FEF9FEFAFEFBFE0ED85E6
:10371000FE8584839583A683B783F901848395838B
:10372000A683B78301E010E02FE530E040E050E0F1
:103730006D857E85832D0E947A108C01892B09F07E
:1037400052C0C984DA84EB84FC848FE590E0A0E069
:10375000B0E0C80ED91EEA1EFB1E01E010E0A70172
:1037600096016D857E85832D0E947A10892B09F044
:103770004CC04091EE035091EF0360E070E08D8506
:103780009E850E94114795E4AD85BE859C9324E5F6
:10379000FD01218388E48283938382E584838EE420
:1037A000858385E58683278380E28087818782877A
:1037B00088E08387158A148A138E128EED85FE8524
:1037C000148E158E168E178E89859A85AB85BC85CD
:1037D000C80ED91EEA1EFB1EA7019601BF01832D4C
:1037E0000E947A108C018D859E850E94D8250E94AA
:1037F0000916012B81F4832D0E949F17009769F011
:103800000AC06050704139F470CD8D859E850E944C
:10381000D8250E9409168FEF9FEF2E960FB6F894C9
:10382000DEBF0FBECDBFDF91CF911F910F91FF90F3
:10383000EF90DF90CF90BF90AF909F908F907F9050
:103840006F905F904F903F902F9008950F931F932C
:10385000CF93DF938C0180E092E00E946525EC011C
:10386000892B31F0802F0E949F17CE010E94D8250E
:10387000DF91CF911F910F910895EF92FF920F93D7
:103880001F93CF93DF93FC018091E2039091E303B8
:103890000097A9F58281863409F03FC08381813485
:1038A000E1F584818435C9F5848595850797A9F567
:1038B00037C041E957E166E27CE180E090E00E9498
:1038C000EC128C01892B19F00EEF1FEF14C0B70119
:1038D00080E090E00E943612C0E0D0E08C2F0E9481
:1038E0009F172196C330D105C9F781E090E09093EE
:1038F000E3038093E203C7010E94D8251CC001970F
:1039000061F48281863449F483818D3431F4848179
:10391000803319F400E010E00EC00FEF1FEF0BC072
:103920000E94041680E092E00E9465257C01892BAC
:1039300009F0BFCFEFCFC801DF91CF911F910F9159
:10394000FF90EF9008952F923F924F925F926F9267
:103950007F928F929F92AF92BF92CF92DF92EF921F
:10396000FF920F931F93CF93DF93CDB7DEB7A69748
:103970000FB6F894DEBF0FBECDBF9EA38DA34B0143
:103980008091E2039091E303892B21F48DA19EA104
:103990000E943D1C0E940E166090E4037090E503A7
:1039A0008DA19EA1009709F422C1FC01848180337E
:1039B0000CF41DC182330CF41DC1863409F017C10B
:1039C00019C1F4018081882309F411C18AE190E0D2
:1039D0000E9465255C018091FC039091FD03A091FC
:1039E000FE03B091FF030097A105B10509F41AC1C8
:1039F000A114B10409F4FBC0F40180818E3209F4F2
:103A0000E7C08AE1F50111928A95E9F72090F80361
:103A10003090F9034090FA035090FB03F401808149
:103A20008F3209F006C102C1FFE3EF16F1040CF07A
:103A300003C183010E0D1F1D992787FD90950E94DC
:103A4000A747F80180830894E11CF11C0894811CAD
:103A5000911CF40180818F3209F4D2C08C3509F4B5
:103A6000CFC0882309F7CCC06EE270E0C3010E948A
:103A70001847009721F409301105D8F50BC0DC0177
:103A80001196FD0101900020E9F73197EA1BFB0B2D
:103A9000349778F58E010B5F1F4F80E2F801119289
:103AA0008A95E9F748E050E060E270E0C8010E94C2
:103AB000114743E050E060E270E0CE010D960E94B5
:103AC0001147D801F301930104C08D932F5F3F4F3D
:103AD000319680818E3219F08823B9F70DC0F90133
:103AE000DE011D9601C08D93818131968823D9F71F
:103AF00003C021E030E002C020E030E0F40180812A
:103B00008F3209F448C08C3509F445C0882309F088
:103B10005FC080E2888B8091ED0380FD8DC08AEECE
:103B2000882E83E0982E69017E010894E11CF11C27
:103B300092018101A301BE016B5F7F4FC4010E940E
:103B400010149B01AC01611571058105910509F403
:103B500073C089819A81AB81BC81F5018083918397
:103B6000A283B38324833583468357832087318799
:103B7000428753871486158616861786108A118AFF
:103B8000128A138A918E808E158A148A178A168A51
:103B900080E090E053C080E1888B8091ED0380FD50
:103BA0004BC069017E010894E11CF11C9201810166
:103BB000A301BE016B5F7F4F8AEE93E00E94101459
:103BC0001B012C016115710581059105A9F12EC01C
:103BD000C5010E94D8250BC086E090E00E946525B3
:103BE0008C01009771F5C5010E94D82533C00FEFF5
:103BF0001FEF30C08091EC03882309F0E2CEF7CFAD
:103C0000E60CF71CF7011082F30101900020E9F7A0
:103C10008F0101501040061917090D30110508F0E9
:103C200068CF22CFA114B10499F6E1CF0894811C8A
:103C3000911CEE24FF240DCF81E090E0019761F606
:103C4000C7CFFC01118210828DA19EA19383828334
:103C5000B582A4820E940916C801A6960FB6F894F0
:103C6000DEBF0FBECDBFDF91CF911F910F91FF90AF
:103C7000EF90DF90CF90BF90AF909F908F907F900C
:103C80006F905F904F903F902F9008958FEF9FEF30
:103C900008952F923F924F925F926F927F928F92F0
:103CA0009F92AF92BF92CF92DF92EF92FF920F93CB
:103CB0001F93CF93DF935C016B014A012901380107
:103CC000170181E090E00E94790FC0E0D0E076011A
:103CD000850109C0F80181918F010E946E0FF701E3
:103CE00081937F012196C815D905A4F3C0E0D0E0E7
:103CF0007301820109C0F80181918F010E946E0F4A
:103D0000F70181937F012196C215D305A4F30E9488
:103D1000560F80E090E0DF91CF911F910F91FF90BF
:103D2000EF90DF90CF90BF90AF909F908F907F905B
:103D30006F905F904F903F902F900895EF92FF9279
:103D40000F931F93CF93DF93CDB7DEB722970FB6B4
:103D5000F894DEBF0FBECDBF87ED89838FEF8A83D6
:103D6000EE24FF2400E010E020E030E042E050E0EC
:103D7000CE010196BC010E94491E892B19F08FEFDC
:103D800090E002C08A81992722960FB6F894DEBF90
:103D90000FBECDBFDF91CF911F910F91FF90EF909C
:103DA00008950F931F930E949E1E0E949E1E082F2F
:103DB00060E070E020915204309153040EC06F5FB8
:103DC0007F4F808580239185891739F48AE0189F79
:103DD0009001112421573D4F18C0162F462F55270B
:103DE000FA01EE0FFF1FCA01A3E0880F991FAA95E1
:103DF000E1F7E80FF91FE157FD4F80819181A28122
:103E0000B3810097A105B105D1F6309353042093F7
:103E10005204CA011F910F910895EF92FF920F93E0
:103E20001F93CF93DF937B018C01EA0119C0209788
:103E300031F461E070E080E090E00E94452B08944E
:103E4000E108F108010911098FEFE8168FEFF80674
:103E50008FEF08078FEF180719F48FEF9FEF06C059
:103E60000E949E1E87FFE3CF80E090E0DF91CF911C
:103E70001F910F91FF90EF9008955F926F927F9244
:103E80008F929F92AF92BF92CF92DF92EF92FF926A
:103E90000F931F93CF93DF93582E4A015B01E901E3
:103EA00038018701293031051CF08FEF9FEF23C0C7
:103EB000A90160E070E084E594E00E94114750920F
:103EC000540481149104A104B10469F0C501AA2726
:103ED000BB2780935504BB27AB2D9A2D892D80934A
:103EE00056048092570476019301AE0164E574E0B4
:103EF000CB010E94491EDF91CF911F910F91FF903E
:103F0000EF90DF90CF90BF90AF909F908F907F9079
:103F10006F905F9008958F929F92AF92BF92CF92D1
:103F2000DF92EF92FF920F931F93CF93DF934B019A
:103F30005C018A016901C9010E94FD42EC01009700
:103F400019F40FEF1FEF36C07C0124E030E040E0B1
:103F500050E060E070E084E80E943D1F892B29F565
:103F6000E0915204F0915304068004C0880C991C1F
:103F7000AA1CBB1C0A94D2F7CC24DD24EE24FF2417
:103F800000E010E024E030E0B501A40183E80E94E5
:103F90003D1F892B51F441E050E068EE73E080E072
:103FA00090E00E940D1F8C0102C00FEF1FEFCE01A9
:103FB0000E94FA42C801DF91CF911F910F91FF90AB
:103FC000EF90DF90CF90BF90AF909F908F9008952B
:103FD000CF92DF92EF92FF920F931F93E0915204E2
:103FE000F0915304068004C0660F771F881F991F45
:103FF0000A94D2F769017A018A0128E030E0AB0126
:10400000BC0188EE0E943D1F1F910F91FF90EF9021
:10401000DF90CF900895CF92DF92EF92FF920F93AF
:104020001F93AA27BB27CC24DD24EE24FF2400E025
:1040300010E024E030E0AC01BD0181E80E943D1FAA
:104040001F910F91FF90EF90DF90CF9008956095B2
:1040500070958095909520915C0430915D0440911D
:104060005E0450915F04262337234823592320936D
:104070005C0430935D0440935E0450935F0480E0E1
:1040800090E00895AF92BF92CF92DF92EF92FF92AD
:104090000F931F93CF93DF93CDB7DEB722970FB661
:1040A000F894DEBF0FBECDBF9B015A01492F5527A3
:1040B00049838A83CC24DD247601850142E050E0E7
:1040C000BE016F5F7F4F87E50E94393D8A159B05D2
:1040D00019F480E090E002C08FEF9FEF22960FB6B8
:1040E000F894DEBF0FBECDBFDF91CF911F910F912E
:1040F000FF90EF90DF90CF90BF90AF900895AF9278
:10410000BF92CF92DF92EF92FF920F931F93CF93C4
:10411000DF93CDB7DEB722970FB6F894DEBF0FBEA0
:10412000CDBF9B015A0119828A83CC24DD247601FC
:104130008A0142E050E0BE016F5F7F4F8FE60E9430
:10414000393D8A159B0519F480E090E002C08FEF9D
:104150009FEF22960FB6F894DEBF0FBECDBFDF9162
:10416000CF911F910F91FF90EF90DF90CF90BF9074
:10417000AF9008950F931F93CF93DF93CDB7DEB722
:1041800021970FB6F894DEBF0FBECDBF8C0141E082
:1041900050E0BE016F5F7F4F8FE30E947F20892B2D
:1041A000E9F489819927AA27BB2720915C043091E3
:1041B0005D0440915E0450915F04822B932BA42BED
:1041C000B52B80935C0490935D04A0935E04B09340
:1041D0005F04F80180839183A283B38380915C04A0
:1041E00090915D0421960FB6F894DEBF0FBECDBF4F
:1041F000DF91CF911F910F910895CF93DF93CDB7AA
:10420000DEB724970FB6F894DEBF0FBECDBF80E0B7
:104210000E94353C009721F4CE0101960E94BA20FD
:1042200024960FB6F894DEBF0FBECDBFDF91CF91BD
:104230000895EF92FF920F931F93CF93DF93CDB723
:10424000DEB728970FB6F894DEBF0FBECDBF8C0146
:1042500048E050E0BE016F5F7F4F80E30E947F2007
:104260007C01892B09F073C02981822F82958F7080
:104270006AE0869FC00111242F70820F911DD80122
:104280008D939C932A81822F82958F70869FC00187
:1042900011242F70820F911DF801938382832B814B
:1042A0003327C9018F739070B4E095958795BA95BF
:1042B000E1F7AC01A3E0440F551FAA95E1F7880F81
:1042C000991F840F951F2F703070820F931F958355
:1042D00084832C81822F82958F70869FC001112448
:1042E0002F70820F911D978386832D81822F829557
:1042F0008F70869FC00111242F70820F911D01972E
:10430000918780878E81282F22952F70269FA0016C
:10431000112499278F7090708C599F4F480F591F07
:10432000538742872885822F82958F70869FC00190
:1043300011242F70820F911D4A9724F04C595F4F22
:10434000538742878F819927F80195878487C70112
:1043500028960FB6F894DEBF0FBECDBFDF91CF9188
:104360001F910F91FF90EF900895AF92BF92CF925F
:10437000DF92EF92FF920F931F93CF93DF93CDB70E
:10438000DEB723970FB6F894DEBF0FBECDBF1982FC
:104390002FE32A835E010894A11CB11C892BA1F094
:1043A00082E08B83CC24DD24760100E010E020E065
:1043B00030E043E050E0B5018FE60E94393D0097C0
:1043C00089F486E08B8306C01B82CC24DD24760131
:1043D00000E010E020E030E043E050E0B5018FE67F
:1043E0000E94393D23960FB6F894DEBF0FBECDBFB5
:1043F000DF91CF911F910F91FF90EF90DF90CF90C1
:10440000BF90AF900895AF92BF92CF92DF92EF929C
:10441000FF920F931F93CF93DF93CDB7DEB7219712
:104420000FB6F894DEBF0FBECDBF13E1A12EB12CA5
:104430000FC061E070E080E090E00E94452B08949E
:10444000A108B108A114B10419F48FEF9FEF14C0B3
:10445000CC24DD24760101E010E09E012F5F3F4F68
:1044600040E050E060E070E087E50E94393D8F5FFA
:104470009F4FF9F280E090E021960FB6F894DEBFEE
:104480000FBECDBFDF91CF911F910F91FF90EF90A5
:10449000DF90CF90BF90AF9008952F923F924F92B0
:1044A0005F926F927F928F929F92AF92BF92CF92C4
:1044B000DF92EF92FF920F931F93CF93DF933C0114
:1044C0004A012B0100E010E046C0C3018F739070D9
:1044D00020E430E0281B390B54012815390508F475
:1044E000590182E0282E312C2A0C3B1CC1010E946C
:1044F000FD42EC01892BA1F1872D992788836982E0
:10450000A501B201CE0102960E94084781E090E029
:104510000E94B5218C01892B31F5CC24DD24760154
:1045200000E010E020E030E0A101BE0187E50E943C
:10453000393D8C01CE010E94FA4201151105B1F4FA
:104540000E9403228C01892B89F48A189B086A0C2B
:104550007B1C4A0C5B1C8114910409F0B6CF06C089
:104560000FEF1FEF03C0CE010E94FA4280E090E0FF
:104570000E94B521C801DF91CF911F910F91FF904B
:10458000EF90DF90CF90BF90AF909F908F907F90F3
:104590006F905F904F903F902F9008958F929F92D1
:1045A000AF92BF92CF92DF92EF92FF920F931F9341
:1045B000CF93DF934C015B01EA0181E090E00E9420
:1045C000B5218C01892BC1F4CC24DD24760100E0D7
:1045D00010E020E030E0AE01B5018FE60E94393DE9
:1045E0008C01892B29F4892819F00E9403228C015F
:1045F00080E090E00E94B521C801DF91CF911F912A
:104600000F91FF90EF90DF90CF90BF90AF909F9071
:104610008F900895EF92FF920F931F93CF93DF93A4
:10462000CDB7DEB72A970FB6F894DEBF0FBECDBF69
:104630008B017A012AE0FE01319611922A95E9F761
:1046400023E0880F991F2A95E1F78A836115710588
:1046500009F47AC040FF12C0FB0140815181842FD0
:104660006AE00E945247282F2295207FCA016AE003
:1046700070E00E947247280F20682B83E1FE12C071
:10468000F80142815381842F6AE00E945247282F0B
:104690002295207FCA016AE070E00E947247280FCD
:1046A00020682C83E2FE12C0F80144815581842FDA
:1046B0006AE00E945247282F2295207FCA016AE0B3
:1046C00070E00E947247280F20682D83E3FE12C01D
:1046D000F80146815781842F6AE00E945247282FB3
:1046E0002295207FCA016AE070E00E947247280F7D
:1046F00020682E83E4FE14C0F80140855185842F84
:104700008F5F6AE00E945247282F2295207FCA01BE
:1047100001966AE070E00E947247280F20682F839C
:10472000E7FE12C0F80144855585842F6AE00E9497
:104730005247282F2295207FCA016AE070E00E942C
:104740007247280F206829874AE050E0BE016F5F5A
:104750007F4F81E090E00E94CE222A960FB6F89417
:10476000DEBF0FBECDBFDF91CF911F910F91FF90A4
:10477000EF900895EF92FF920F931F93CF93DF93E3
:10478000CDB7DEB728970FB6F894DEBF0FBECDBF0A
:104790007B018A01FA011182108292E1FB011192E0
:1047A0009A95E9F748E050E0BE016F5F7F4F880FB0
:1047B000880F880F0E947F20BC01892B09F09FC0C1
:1047C000298127FF20C0F801808191818160918338
:1047D00080833327C9018F779070F4E09595879592
:1047E000FA95E1F7AC01E3E0440F551FEA95E1F7D4
:1047F000880F991F840F951F2F703070820F931FA1
:10480000F701918380833A8137FF13C0F8018081DB
:104810009181826091838083832F82958F702AE0BB
:10482000829FC00111243F70830F911DF701938374
:1048300082832B8127FF20C0F801808191818460D1
:10484000918380833327C9018F779070A4E0959579
:104850008795AA95E1F7AC01F3E0440F551FFA954F
:10486000E1F7880F991F840F951F2F703070820F0A
:10487000931FF701958384833C8137FF13C0F801B0
:1048800080819181886091838083832F82958F704E
:104890002AE0829FC00111243F70830F911DF70110
:1048A000978386833D8137FF14C0F8018081918111
:1048B000806191838083832F82958F702AE0829F0D
:1048C000C00111243F70830F911D0197F70191875B
:1048D00080873F8137FF13C0F80180819181806814
:1048E00091838083832F82958F702AE0829FC001FD
:1048F00011243F70830F911DF70195878487CB01A9
:1049000028960FB6F894DEBF0FBECDBFDF91CF91D2
:104910001F910F91FF90EF9008950F931F93CF93E6
:10492000DF93CDB7DEB72A970FB6F894DEBF0FBE80
:10493000CDBF8C018AE0FE01319611928A95E9F78C
:104940000115110509F481C080E38A83F8014081D3
:104950005181842F6AE00E945247282F2295207FA0
:10496000CA016AE070E00E947247280F2B834281DF
:104970005381842F6AE00E945247282F2295207F7E
:10498000CA016AE070E00E947247280F2C834481BC
:104990005581842F6AE00E945247282F2295207F5C
:1049A000CA016AE070E00E947247280F20682D83D8
:1049B00046815781842F6AE00E945247282F229512
:1049C000207FCA016AE070E00E947247280F2E83A0
:1049D00040855185842F8F5F6AE00E945247282FBF
:1049E0002295207FCA0101966AE070E00E9472471A
:1049F000280F2F8342855385443651059CF0842F20
:104A000084566AE00E945247282F2295207FCA01CF
:104A1000845690406AE070E00E947247280F288711
:104A200080E20FC0842F6AE00E945247282F22950F
:104A3000207FCA016AE070E00E947247280F288731
:104A400089E18A87F801848589874AE050E0BE01C0
:104A50006F5F7F4F80E090E00E94CE222A960FB6D3
:104A6000F894DEBF0FBECDBFDF91CF911F910F91A4
:104A700008958093F20208950E94C32C20E033E051
:104A800040E050E06CE075E08DEE92E00E9437303F
:104A90008EEF0E9469290E94ED290E9434292091FD
:104AA000F2022F3FC1F393B783B7817F822B83BF7D
:104AB00083B7816083BF889583B78E7F83BF83B7B9
:104AC000817F9E70892B83BFE6CF0F931F93CF9377
:104AD000DF9300916104109162048017910730F018
:104AE00080E090E060C0EF01DB012FC0AC014A5FC5
:104AF0005F4F4430510510F444E050E0E091FF0670
:104B0000F09100076FEF76E0C0E0D0E0A0E0B0E009
:104B100017C0208131812417350760F0241735072D
:104B200011F3209729F0888199812817390710F40B
:104B3000EF01DB01BF016E5F7F4F0280F381E02D4B
:104B4000309739F7CE01209771F128813981CA0158
:104B50000A966A817B818217930770F4FE01E40F45
:104B6000F51F241B350B31832083738362835983A4
:104B70004883ED93FC9302C06D937C93E881F981A7
:104B80000E1B1F0B1093620400936104EC0FFD1FBA
:104B900034978FEE9EEBADEABEED80839183A283C6
:104BA000B383CE010296DF91CF911F910F910895AB
:104BB000CF93DF93DC0112976D917C911197E09177
:104BC000FF06F0910007CFEFD6E03AC04081518157
:104BD000CF01840F951F8A179B07C1F49A01260FF6
:104BE000371F3183208382819381DF01A20FB31F9E
:104BF000A817B90791F58D919C911197280F391F2E
:104C000031832083ED018A819B8125C0AE17BF07C8
:104C100078F4B983A8832D913C911197CD01820F2F
:104C2000931F8E179F0779F0ED01FB83EA8315C070
:104C3000A817B90728F1EF0122960280F381E02D31
:104C4000309721F617C0240F351F11963C932E93F1
:104C500082819381FD01938382838091610490918D
:104C60006204860F971F909362048093610480E032
:104C700090E008C0FD0113821282B983A883EDCFB2
:104C80008FEF9FEFDF91CF910895FC0161937193B6
:104C9000CF010E94D825089580916104909162040B
:104CA00008950F931F93CF93DF938C010E94652586
:104CB000EC01009729F0A80160E070E00E94114724
:104CC000CE01DF91CF911F910F91089580916C04D7
:104CD00090916D0490937104809370049093740488
:104CE00080937304109272041092750422E0209352
:104CF000FFFF21E02093630410926804109269047E
:104D000010926A0410926B04089580E090E89093EA
:104D10006D0480936C0480E090EC90936F0480931A
:104D20006E0480E090E8A7E0B0E080936404909384
:104D30006504A0936604B09367040E9466260895F4
:104D4000FC0180916304882389F49091720480911E
:104D50007504981759F42091700430917104809172
:104D60007304909174048217930740F480916E0449
:104D700090916F042091700430917104821B930B09
:104D800091838083809172048E5F8093FFFF809176
:104D90007004909171040895FC018091630488234C
:104DA00019F01182108227C09091720480917504CD
:104DB000981759F420917304309174048091700411
:104DC000909171042817390768F080916E049091D2
:104DD0006F042091730430917404821B930B9183B0
:104DE000808309C0821B930B91838083892B19F4E4
:104DF00081E080936304809175048E5F8093FFFF50
:104E000080917304909174040895009709F440C050
:104E10006091700470917104680F791F7093710430
:104E200060937004109263049C014427552780917D
:104E3000680490916904A0916A04B0916B04820F98
:104E4000931FA41FB51F8093680490936904A093D7
:104E50006A04B0936B0480916E0490916F0468179C
:104E60007907B1F480916C0490916D049093710472
:104E700080937004809172048F5F809372048E31EE
:104E800014F010927204809172048E5F8093FFFF81
:104E900080917004909171040895009709F452C0B4
:104EA0006091730470917404680F791F7093740497
:104EB000609373049C014427552780916804909166
:104EC0006904A0916A04B0916B04821B930BA40B3C
:104ED000B50B8093680490936904A0936A04B0931F
:104EE0006B0480916E0490916F0468177907B1F498
:104EF00080916C0490916D0490937404809373047A
:104F0000809175048F5F809375048E3114F0109238
:104F10007504809175048E5F8093FFFF2091730468
:104F200030917404809170049091710428173907AE
:104F300049F49091750480917204981719F481E0F6
:104F40008093630480917304909174040895009792
:104F5000D9F16091700470917104680F791F70939A
:104F60007104609370049C01442755278091680464
:104F700090916904A0916A04B0916B04820F931F11
:104F8000A41FB51F8093680490936904A0936A04DA
:104F9000B0936B041092630480916E0490916F043F
:104FA0006817790789F480916C0490916D0490934F
:104FB000710480937004809172048F5F80937204F7
:104FC0008E3114F010927204809175048E5F80937C
:104FD000FFFF0895009709F44DC06091730470912C
:104FE0007404680F791F70937404609373049C01B8
:104FF000442755278091680490916904A0916A0420
:10500000B0916B04821B930BA40BB50B80936804C7
:1050100090936904A0936A04B0936B0480916E042A
:1050200090916F046817790789F480916C049091CE
:105030006D049093740480937304809175048F5F62
:10504000809375048E3114F01092750420917304CE
:10505000309174048091700490917104281739077D
:1050600049F49091750480917204981719F481E0C5
:1050700080936304809172048E5F8093FFFF089594
:105080006091640470916504809166049091670456
:10509000209168043091690440916A0450916B0436
:1050A000621B730B840B950B0895609168047091DB
:1050B000690480916A0490916B040895809168045A
:1050C00090916904A0916A04B0916B04805090445F
:1050D000A040B0408093680490936904A0936A0450
:1050E000B0936B04809175048F5F809375048E314B
:1050F00014F010927504809175048E5F8093FFFF09
:105100000895CF93DF93DC019B01EC01788F6F8BC7
:105110001D821C820FB6F8940F92EB01E881F98191
:105120008FEFEF3FF80749F4ED018C819D810196E7
:105130009D838C83E0E0F0E015C0309799F00F90EC
:105140000FBEED019A8908C09F012E5F3F4F02807C
:10515000F381E02D309719F082899817A8F70FB6E0
:10516000F8940F92ED01FB83EA83F901B183A083E8
:10517000EA81FB81309771F084819581892B51F010
:105180008C819D8124813581820F931F9D838C8327
:10519000158214820F900FBEDF91CF910895CF93A7
:1051A000DF939C01DB010FB6F8940F92ED91FC9117
:1051B00011970F900FBE8FEFEF3FF80731F527C023
:1051C00082819381E217F307E9F40FB6F8940F9206
:1051D00011969C938E9384819581892B59F0A2819D
:1051E000B381109729F084819581ED019D838C8393
:1051F000158214820F900FBEF90113821282108E55
:10520000178A05C0DF011296FC013097C9F6DF91BD
:10521000CF910895FB01168A158A82E0878763E0A3
:1052200077E0CF010E94812808950F931F93CF93B9
:10523000DF938C01C0910107D09102070CC0B80127
:10524000CE0106960E942347892B11F4CE0107C098
:105250000990D881C02D209791F780E090E0DF91F0
:10526000CF911F910F910895E0910707F0910807E2
:10527000309741F0838994890E94D82510920807BD
:10528000109207070895CF93DF93C0910107D09143
:1052900002070E9434292091050730910607E1E0BA
:1052A000F7E00AC088819981C217D30719F4918366
:1052B000808304C0FE01EC012097A1F780910507CF
:1052C000909106079093080780930707DF91CF918D
:1052D00008950F931F93182FE0910507F09106078B
:1052E000028963E077E0CF010E94CF28E0910507B3
:1052F000F0910607128B1F3F49F063E077E0809141
:105300000507909106070E94812802C00E94432948
:10531000E0910507F091060780910307909104073B
:10532000E817F90719F481E0878709C082E08787C9
:105330000FB6F8940F920E94F82F0F900FBE802F97
:1053400099271F910F9108958FEF0E946929089561
:10535000CF93DF93C0910107D091020720C00FB611
:10536000F8940F928C819D810F900FBE892BA1F034
:10537000EF89F88D0FB6F8940F928C819D8101977B
:105380009D838C830F900FBE808191818F5F9F4F93
:1053900019F0CF010E944B2D0990D881C02D209784
:1053A000F1F60E94372CE0910507F09106078091F5
:1053B000030790910407E817F90761F087858130AA
:1053C00011F482E087870FB6F8940F920E94F82FAD
:1053D0000F900FBEDF91CF910895E0910507F091F6
:1053E000060782819381892B69F063E077E0CF0122
:1053F0000E94CF2863E077E080910507909106072F
:105400000E9481280E94A829089580910F079091F9
:105410001007A0911107B09112070196A11DB11DAF
:1054200080930F0790931007A0931107B093120772
:1054300008959B01AC016091090770910A07809162
:105440000B0790910C070E94334728EE33E040E0B1
:1054500050E00E94854701C00000215031094109F8
:105460005109D0F708959927AA27BB27BC01CD0180
:1054700028EE33E040E050E00E9433470E94192AB2
:105480000895CF93DF93EC011B821A82E0910D0700
:10549000F0910E071AC0288539854A855B8580857D
:1054A0009185A285B385281739074A075B0780F0E5
:1054B000281B390B4A0B5B0B288739874A875B8788
:1054C000FB83EA830190F081E02D309721F718C02B
:1054D000821B930BA40BB50B80879187A287B387A0
:1054E000F983E883D383C283EA81FB81309719F083
:1054F000D183C08308C0D0930E07C0930D0703C0AB
:1055000019821882F1CFDF91CF910895CF93DF9365
:10551000FC011482158216821782158614868085F6
:105520009185A285B3850097A105B10561F1A2819E
:10553000B38180819181109719F08D939C9304C061
:1055400090930E0780930D07C081D1812097A1F021
:10555000828193819B838A8388859985AA85BB856F
:105560002085318542855385820F931FA41FB51F67
:1055700088879987AA87BB8710861186128613862B
:10558000CF010E94412ADF91CF9108950FB6F89480
:105590000F9260910F077091100780911107909101
:1055A00012070F900FBE0895AF92BF92CF92DF9275
:1055B000EF92FF920F93CF93DF936B017C01EA018F
:1055C000590180E190E00E946525FC01892B81F161
:1055D0000FB6F8940F9280910F0790911007A09149
:1055E0001107B09112070F900FBE8C0D9D1DAE1DBF
:1055F000BF1D20917604309177044091780450913A
:105600007904821B930BA40BB50B80879187A2872B
:10561000B38700FF05C0148215821682178204C06A
:10562000C482D582E682F782D587C487B786A686EC
:10563000CF01DF91CF910F91FF90EF90DF90CF904E
:10564000BF90AF9008950F93CF93DF930E94D42A19
:10565000EC01009711F00E94412ACE01DF91CF9119
:105660000F910895CF92DF92EF92FF920F936A010C
:1056700079010E9409319701A6010E94232B0F9105
:10568000FF90EF90DF90CF900895AF92BF92CF92AE
:10569000DF92EF92FF920F93CF93DF935B016C0148
:1056A0006115710581059105D1F1C3E0D7E0BE0117
:1056B00080910507909106070E94CF28E091050789
:1056C000F091060783E08787E0900507F0900607D2
:1056D00001E097014AE059E2C601B5010E94322B70
:1056E000F701968B858B892B19F00E94A82919C088
:1056F000E0910507F0910607D08FC78B80910307D3
:10570000909104079383828381E0878780910507C6
:1057100090910607909304078093030702C00E94AC
:10572000ED29DF91CF910F91FF90EF90DF90CF9017
:10573000BF90AF9008952F923F924F925F926F92D9
:105740007F928F929F92AF92BF92CF92DF92EF9211
:10575000FF920F931F93CF93DF93CDB7DEB72497BC
:105760000FB6F894DEBF0FBECDBF0FB6F8940F9200
:10577000A0900F07B0901007C0901107D0901207AB
:105780000F900FBE0E94DF309B01AC01C601B50136
:105790000E94854739014A010E94DF301B012C011C
:1057A0000E94DF3069837A838B839C83C401B301B9
:1057B00028EE33E040E050E00E9433477B018C014B
:1057C000C401B301A20191010E943347A61AB70A8E
:1057D000C80AD90AC601B50128EE33E040E050E01E
:1057E0000E94334729813A814B815C810E94854721
:1057F000E20EF31E041F151FC801B70124960FB651
:10580000F894DEBF0FBECDBFDF91CF911F910F91F6
:10581000FF90EF90DF90CF90BF90AF909F908F90D0
:105820007F906F905F904F903F902F900895EF92F0
:10583000FF920F931F930FB6F8940F92E0900F070B
:10584000F090100700911107109112070F900FBEF2
:105850000E94DF309B01AC01C801B7010E9485475F
:10586000CA01B9011F910F91FF90EF900895EF9237
:10587000FF920F931F93CF93DF930FB6F8940F927D
:1058800020910F0730911007409111075091120796
:105890000F900FBE8091760490917704A0917804C8
:1058A000B091790479018A01E81AF90A0A0B1B0BF5
:1058B00020937604309377044093780450937904CE
:1058C0004FC088859985AA85BB85E816F9060A0721
:1058D0001B07A0F48E199F09A00BB10B888799872D
:1058E000AA87BB870097A105B10521F0EE24FF240C
:1058F000870136C0EE24FF24870108C0E81AF90AA0
:105900000A0B1B0B188619861A861B86EC85FD85EB
:10591000309721F06E857F85CE011995E0910D07B6
:10592000F0910E070190F081E02DF0930E07E093C7
:105930000D07309711F0138212828C819D81AE8108
:10594000BF8188879987AA87BB870097A105B10582
:1059500021F4CE010E94D82503C0CE010E94412A25
:10596000C0910D07D0910E07209731F0E114F1049A
:105970000105110509F0A5CFDF91CF911F910F917E
:10598000FF90EF90089585E09AE20E94E4308091C4
:1059900070008260809370000FB6F8940F9220918F
:1059A0000F073091100740911107509112070F9087
:1059B0000FBE0FB6F8940F9280910F0790911007C9
:1059C000A0911107B09112070F900FBE2817390749
:1059D0004A075B0771F30FB6F8940F9220910F07F7
:1059E0003091100740911107509112070F900FBE90
:1059F00013C08091090790910A07A0910B07B091FD
:105A00000C070196A11DB11D8093090790930A0709
:105A1000A0930B07B0930C070FB6F8940F928091E8
:105A20000F0790911007A0911107B09112070F90E6
:105A30000FBE281739074A075B07D9F2609109079B
:105A400070910A0780910B0790910C0727E630E0D0
:105A500040E050E00E9433476093090770930A07C3
:105A600080930B0790930C076091090770910A07C8
:105A700080910B0790910C072AE130E040E050E064
:105A80000E9485472093090730930A0740930B072C
:105A900050930C070895CF93DF93DC010FB6F89471
:105AA0000F92CD91DC9111970F900FBE8FEFCF3FEA
:105AB000D80709F43AC0209771F10FB6F8940F9205
:105AC000EA81FB811196FC93EE938C819D81892B59
:105AD00071F0309729F08C819D819583848305C076
